:020000040800F2
:1000000000500020153700085D1300085F1300083A
:100010006113000863130008651300080000000066
:10002000000000000000000000000000671300084E
:1000300069130008000000006B1300086D1300082E
:100040005D3700085D3700085D3700085D37000840
:100050005D3700085D3700085D370008751300083C
:100060007F1300085D3700085D3700085D37000822
:100070005D3700085D3700085D3700085D37000810
:100080005D3700085D3700085D3700085D37000800
:100090005D3700085D3700085D3700085D370008F0
:1000A0005D3700085D3700085D3700085D370008E0
:1000B0005D3700085D3700085D3700085D370008D0
:1000C0005D3700085D3700085D3700085D370008C0
:1000D0005D3700085D3700085D3700085D370008B0
:1000E000891300085D3700085D3700080000000034
:1000F0000000000000000000000000000000000000
:0C01000000000000000000005FF808F1A3
:10010C00034613F8012B002AFBD1181A013870474B
:10011C0081F0004102E000BF83F0004330B54FEAAC
:10012C0041044FEA430594EA050F08BF90EA020F19
:10013C001FBF54EA000C55EA020C7FEA645C7FEAAC
:10014C00655C00F0E2804FEA5454D4EB5555B8BFCF
:10015C006D420CDD2C4480EA020281EA030382EA40
:10016C00000083EA010180EA020281EA0303362DD2
:10017C0088BF30BD11F0004F4FEA01314FF4801CA5
:10018C004CEA113102D0404261EB410113F0004FB7
:10019C004FEA03334CEA133302D0524263EB43036E
:1001AC0094EA050F00F0A780A4F10104D5F1200E0C
:1001BC000DDB02FA0EFC22FA05F2801841F1000167
:1001CC0003FA0EF2801843FA05F359410EE0A5F13B
:1001DC0020050EF1200E012A03FA0EFC28BF4CF06C
:1001EC00020C43FA05F3C01851EBE37101F0004522
:1001FC0007D54FF0000EDCF1000C7EEB00006EEB2F
:10020C000101B1F5801F1BD3B1F5001F0CD34908B8
:10021C005FEA30004FEA3C0C04F101044FEA44520F
:10022C0012F5800F80F09A80BCF1004F08BF5FEA96
:10023C00500C50F1000041EB045141EA050130BD76
:10024C005FEA4C0C404141EB0101013C28BFB1F588
:10025C00801FE9D291F0000F04BF01460020B1FAD3
:10026C0081F308BF2033A3F10B03B3F120020CDAA6
:10027C000C3208DD02F1140CC2F10C0201FA0CF084
:10028C0021FA02F10CE002F11402D8BFC2F1200CE9
:10029C0001FA02F120FA0CFCDCBF41EA0C0190409F
:1002AC00E41AA2BF01EB0451294330BD6FEA0404E8
:1002BC001F3C1CDA0C340EDC04F11404C4F12002D3
:1002CC0020FA04F001FA02F340EA030021FA04F3E5
:1002DC0045EA030130BDC4F10C04C4F1200220FA3C
:1002EC0002F001FA04F340EA0300294630BD21FA7A
:1002FC0004F0294630BD94F0000F83F4801306BF40
:10030C0081F480110134013D4EE77FEA645C18BF33
:10031C007FEA655C29D094EA050F08BF90EA020FCA
:10032C0005D054EA000C04BF1946104630BD91EAC2
:10033C00030F1EBF0021002030BD5FEA545C05D1C5
:10034C004000494128BF41F0004130BD14F5800404
:10035C003CBF01F5801130BD01F0004545F0FE4178
:10036C0041F470014FF0000030BD7FEA645C1ABFAD
:10037C00194610467FEA655C1CBF0B46024650EAE4
:10038C00013406BF52EA033591EA030F41F4002110
:10039C0030BD00BF90F0000F04BF0021704730B596
:1003AC004FF4806404F132044FF000054FF000016B
:1003BC0050E700BF90F0000F04BF0021704730B52C
:1003CC004FF4806404F1320410F0004548BF404201
:1003DC004FF000013EE700BF42004FEAE2014FEA56
:1003EC0031014FEA02701FBF12F07F4393F07F4F31
:1003FC0081F06051704732F07F4208BF704793F034
:10040C007F4F04BF41F40021704730B54FF4607446
:10041C0001F0004521F000411CE700BF50EA010249
:10042C0008BF704730B54FF000050AE050EA0102F2
:10043C0008BF704730B511F0004502D5404261EB62
:10044C0041014FF4806404F132045FEA915C3FF4A3
:10045C00D8AE4FF003025FEADC0C18BF03325FEA40
:10046C00DC0C18BF033202EBDC02C2F1200300FAF1
:10047C0003FC20FA02F001FA03FE40EA0E0021FA16
:10048C0002F11444BDE600BF70B54FF0FF0C4CF404
:10049C00E06C1CEA11541DBF1CEA135594EA0C0FB6
:1004AC0095EA0C0F00F0DEF82C4481EA030621EAF1
:1004BC004C5123EA4C5350EA013518BF52EA03352C
:1004CC0041F4801143F4801338D0A0FB02CE4FF0DE
:1004DC000005E1FB02E506F00042E0FB03E54FF00E
:1004EC000006E1FB03569CF0000F18BF4EF0010E06
:1004FC00A4F1FF04B6F5007F64F5407404D25FEA02
:10050C004E0E6D4146EB060642EAC62141EA5551B4
:10051C004FEAC52040EA5E504FEACE2EB4F1FD0CF6
:10052C0088BFBCF5E06F1ED8BEF1004F08BF5FEA74
:10053C00500E50F1000041EB045170BD06F0004626
:10054C0046EA010140EA020081EA0301B4EB5C04D3
:10055C00C2BFD4EB0C0541EA045170BD41F48011CB
:10056C004FF0000E013C00F3AB8014F1360FDEBFF0
:10057C00002001F0004170BDC4F10004203C35DACC
:10058C000C341BDC04F11404C4F1200500FA05F34F
:10059C0020FA04F001FA05F240EA020001F00042F0
:1005AC0021F0004110EBD37021FA04F642EB060166
:1005BC005EEA430E08BF20EAD37070BDC4F10C0490
:1005CC00C4F1200500FA04F320FA05F001FA04F254
:1005DC0040EA020001F0004110EBD37041F1000140
:1005EC005EEA430E08BF20EAD37070BDC4F120054B
:1005FC0000FA05F24EEA020E20FA04F301FA05F2B3
:10060C0043EA020321FA04F001F0004121FA04F25A
:10061C0020EA020000EBD3705EEA430E08BF20EA2A
:10062C00D37070BD94F0000F0FD101F00046400064
:10063C0041EB010111F4801F08BF013CF7D041EAE6
:10064C00060195F0000F18BF704703F000465200EA
:10065C0043EB030313F4801F08BF013DF7D043EABB
:10066C000603704794EA0C0F0CEA135518BF95EA71
:10067C000C0F0CD050EA410618BF52EA4306D1D1F8
:10068C0081EA030101F000414FF0000070BD50EA17
:10069C00410606BF1046194652EA430619D094EAA1
:1006AC000C0F02D150EA013613D195EA0C0F05D18B
:1006BC0052EA03361CBF104619460AD181EA0301DF
:1006CC0001F0004141F0FE4141F470014FF0000097
:1006DC0070BD41F0FE4141F4780170BD70B54FF032
:1006EC00FF0C4CF4E06C1CEA11541DBF1CEA1355B2
:1006FC0094EA0C0F95EA0C0F00F0A7F8A4EB050494
:10070C0081EA030E52EA03354FEA013100F088808A
:10071C004FEA03334FF0805545EA131343EA126353
:10072C004FEA022245EA111545EA10654FEA002608
:10073C000EF000419D4208BF964244F1FD0404F5C1
:10074C00407402D25B084FEA3202B61A65EB03051D
:10075C005B084FEA32024FF480104FF4002CB6EBDA
:10076C00020E75EB030E22BFB61A754640EA0C005A
:10077C005B084FEA3202B6EB020E75EB030E22BF9A
:10078C00B61A754640EA5C005B084FEA3202B6EBDB
:10079C00020E75EB030E22BFB61A754640EA9C009A
:1007AC005B084FEA3202B6EB020E75EB030E22BF6A
:1007BC00B61A754640EADC0055EA060E18D04FEA28
:1007CC00051545EA16754FEA06164FEAC30343EAC8
:1007DC0052734FEAC2025FEA1C1CC0D111F4801F95
:1007EC000BD141EA00014FF000004FF0004CB6E78E
:1007FC0011F4801F04BF01430020B4F1FD0C88BF2D
:10080C00BCF5E06F3FF6AFAEB5EB030C04BFB6EB37
:10081C00020C5FEA500C50F1000041EB045170BD2A
:10082C000EF0004E4EEA113114EB5C04C2BFD4EB57
:10083C000C0541EA045170BD41F480114FF0000EDB
:10084C00013C90E645EA060E8DE60CEA135594EA57
:10085C000C0F08BF95EA0C0F3FF43BAF94EA0C0F5A
:10086C000AD150EA01347FF434AF95EA0C0F7FF4CF
:10087C0025AF104619462CE795EA0C0F06D152EA23
:10088C0003353FF4FDAE1046194622E750EA410607
:10089C0018BF52EA43067FF4C5AE50EA41047FF418
:1008AC000DAF52EA43057FF4EBAE12E74FEA41027B
:1008BC0012F5001215D211D56FF47873B3EB6252A6
:1008CC0012D94FEAC12343F0004343EA505311F0CD
:1008DC00004F23FA02F018BF404270474FF000005F
:1008EC00704750EA013005D111F0004008BF6FF09D
:1008FC00004070474FF00000704700BF80F0004090
:10090C0002E000BF81F0004142001FBF5FEA4103DB
:10091C0092EA030F7FEA226C7FEA236C6AD04FEADB
:10092C001262D2EB1363C1BFD21841404840414020
:10093C00B8BF5B42192B88BF704710F0004F40F4D2
:10094C00000020F07F4018BF404211F0004F41F4EE
:10095C00000121F07F4118BF494292EA030F3FD0BA
:10096C00A2F1010241FA03FC10EB0C00C3F12003CD
:10097C0001FA03F100F0004302D5494260EB40005C
:10098C00B0F5000F13D3B0F1807F06D340084FEAC7
:10099C00310102F10102FE2A51D2B1F1004F40EBBC
:1009AC00C25008BF20F0010040EA03007047490024
:1009BC0040EB0000013A28BFB0F5000FEDD2B0FAC1
:1009CC0080FCACF1080CB2EB0C0200FA0CF0AABFE4
:1009DC0000EBC25052421843BCBFD0401843704782
:1009EC0092F0000F81F4000106BF80F40000013288
:1009FC00013BB5E74FEA41037FEA226C18BF7FEA5F
:100A0C00236C21D092EA030F04D092F0000F08BFA0
:100A1C000846704790EA010F1CBF0020704712F087
:100A2C007F4F04D1400028BF40F00040704712F1C6
:100A3C0000723CBF00F50000704700F0004343F02B
:100A4C00FE4040F4000070477FEA226216BF084661
:100A5C007FEA23630146420206BF5FEA412390EA24
:100A6C00010F40F4800070474FF0000304E000BF1A
:100A7C0010F0004348BF40425FEA000C08BF7047CB
:100A8C0043F0964301464FF000001CE050EA01028F
:100A9C0008BF70474FF000030AE000BF50EA0102A4
:100AAC0008BF704711F0004302D5404261EB410191
:100ABC005FEA010C02BF84460146002043F0B643B6
:100ACC0008BFA3F18053A3F50003BCFA8CF2083ADB
:100ADC00A3EBC25310DB01FA02FC634400FA02FCE4
:100AEC00C2F12002BCF1004F20FA02F243EB0200EB
:100AFC0008BF20F00100704702F1200201FA02FC4D
:100B0C00C2F1200250EA4C0021FA02F243EB02003F
:100B1C0008BF20EADC7070474FF0FF0C1CEAD05283
:100B2C001EBF1CEAD15392EA0C0F93EA0C0F6FD044
:100B3C001A4480EA010C400218BF5FEA41211ED022
:100B4C004FF0006343EA501043EA5111A0FB01310E
:100B5C000CF00040B1F5000F3EBF490041EAD371E3
:100B6C005B0040EA010062F17F02FD2A1DD8B3F15F
:100B7C00004F40EBC25008BF20F00100704790F0CE
:100B8C00000F0CF0004C08BF49024CEA502040EA20
:100B9C0051207F3AC2BFD2F1FF0340EAC2507047E6
:100BAC0040F400004FF00003013A5DDC12F1190F24
:100BBC00DCBF00F000407047C2F10002410021FA96
:100BCC0002F1C2F1200200FA02FC5FEA310040F1AE
:100BDC00000053EA4C0308BF20EADC70704792F027
:100BEC00000F00F0004C02BF400010F4000F013A5F
:100BFC00F9D040EA0C0093F0000F01F0004C02BF5A
:100C0C00490011F4000F013BF9D041EA0C018FE7C8
:100C1C000CEAD15392EA0C0F18BF93EA0C0F0AD0CE
:100C2C0030F0004C18BF31F0004CD8D180EA0100F4
:100C3C0000F00040704790F0000F17BF90F0004F8D
:100C4C00084691F0000F91F0004F14D092EA0C0F6F
:100C5C0001D142020FD193EA0C0F03D14B0218BF02
:100C6C00084608D180EA010000F0004040F0FE4048
:100C7C0040F40000704740F0FE4040F440007047E4
:100C8C004FF0FF0C1CEAD0521EBF1CEAD15392EA63
:100C9C000C0F93EA0C0F69D0A2EB030280EA010C53
:100CAC0049024FEA402037D04FF0805343EA1111EC
:100CBC0043EA10130CF000408B4238BF5B0042F14A
:100CCC007D024FF4000C8B4224BF5B1A40EA0C00EF
:100CDC00B3EB510F24BFA3EB510340EA5C00B3EB21
:100CEC00910F24BFA3EB910340EA9C00B3EBD10F0F
:100CFC0024BFA3EBD10340EADC001B0118BF5FEA61
:100D0C001C1CE0D1FD2A3FF650AF8B4240EBC25089
:100D1C0008BF20F0010070470CF0004C4CEA50204A
:100D2C007F32C2BFD2F1FF0340EAC250704740F499
:100D3C0000004FF00003013A37E792F0000F00F08B
:100D4C00004C02BF400010F4000F013AF9D040EA09
:100D5C000C0093F0000F01F0004C02BF490011F49D
:100D6C00000F013BF9D041EA0C0195E70CEAD15395
:100D7C0092EA0C0F08D142027FF47DAF93EA0C0F7C
:100D8C007FF470AF084676E793EA0C0F04D14B0260
:100D9C003FF44CAF08466EE730F0004C18BF31F012
:100DAC00004CCAD130F000427FF45CAF31F000430C
:100DBC007FF43CAF5FE700BF4FEA4002B2F1FE4F59
:100DCC000FD34FF09E03B3EB12620DD94FEA002301
:100DDC0043F0004310F0004F23FA02F018BF4042DA
:100DEC0070474FF00000704712F1610F01D14202C1
:100DFC0005D110F0004008BF6FF0004070474FF075
:100E0C000000704710B5054C237833B9044B13B16F
:100E1C000448AFF300800123237010BD5C00002058
:100E2C0000000000F843000808B5034B1BB1034950
:100E3C000348AFF3008008BD0000000060000020F4
:100E4C00F843000810B582B004461021002002F0CF
:100E5C00FFFAE3697BB1002B02DD236A022B12DC63
:100E6C000D4B012200920ECB0C4802F0D9FA02F085
:100E7C0035FA02B010BD084B012200920ECB084887
:100E8C0002F0CEFAF3E7044B012200920ECB054898
:100E9C0002F0C6FAEBE700BFB44500088044000836
:100EAC006C4400087844000872B6FEE710B590B0A8
:100EBC0006AC28220021204602F07AFC0023019384
:100ECC000293039304930593012206924FF480330B
:100EDC0007930A9202220D920E934FF4E0130F9394
:100EEC00204600F0D5FE78B90F2301930221029120
:100EFC00002303934FF480620492059301A801F040
:100F0C00F9F818B910B010BDFFF7CEFFFFF7CCFF02
:100F1C0010B5D4B000F06EFEFFF7C8FF00F0A0F8DB
:100F2C0000F09CF900F022F901F024FC00F07CF9AF
:100F3C0002F0AEFA002002F0C3F91021084602F0CC
:100F4C0087FA3E4B012400940ECB3D4802F068FA20
:100F5C0002F0C4F94FF4FA7000F070FE002002F0B9
:100F6C00AFF93848384B03601022828083604FF40D
:100F7C008072828103618482344B836102F0F8F8C1
:100F8C000446C822002122A802F012FCC82C24D04E
:100F9C00B4F5CA7F33D040F2F7139C423DD0294BB5
:100FAC004FF4D9721A62092283F82420082283F89C
:100FBC002520042283F82620FC2283F82A20822272
:100FCC0083F82B200A221A8502F0C6FA02A802F036
:100FDC00F7FA1F48FFF736FFFEE71021084602F02C
:100FEC0037FA164B012200920ECB1A4802F018FA6F
:100FFC0002F074F94FF4FA7000F020FECFE70F4BBB
:10100C00012200920ECB144802F00AFA02F066F9A3
:10101C004FF4FA7000F012FEC1E7084B0122009267
:10102C000ECB0E4802F0FCF902F058F902F056F91A
:10103C004FF4FA7000F002FEB1E700BFB4450008AF
:10104C0090440008D000002000080140FC00002063
:10105C0078000020A0440008AC440008CC440008F0
:10106C002DE9F04188B004AD002404940594069455
:10107C000794384B9A6942F010029A619A6902F00F
:10108C0010020092009A9A6942F020029A619A69C1
:10109C0002F020020192019A9A6942F004029A61CC
:1010AC009A6902F004020292029A9A6942F00802CA
:1010BC009A619B6903F008030393039B264F01225B
:1010CC004FF48871384601F0FBF94FF40053049348
:1010DC00DFF88880CDF8148006942946204801F06A
:1010EC00E5F801260496CDF8148006942946384676
:1010FC0001F0DCF84FF488730493059606940223F0
:10110C0007932946384601F0D1F806230493154B72
:10111C00059306962946144801F0C8F82246314634
:10112C00072001F029FA072001F036FA2246314651
:10113C00082001F021FA082001F02EFA224621465F
:10114C00282001F019FA282001F026FA08B0BDE891
:10115C00F08100BF00100240000801400000111097
:10116C000010014000002110000C014008B50E4891
:10117C000E4B03604FF48273436000238360C360A3
:10118C00036143614FF4007282611822C2610362F1
:10119C00436283620A23C36200F0D8F900B908BD28
:1011AC00FFF782FEFBE700BFFC000020003001408F
:1011BC0030B587B000230293039304930593026820
:1011CC00174B9A4201D007B030BD03F560439A69C2
:1011DC0042F480529A619A6902F480520092009A09
:1011EC009A6942F004029A619B6903F0040301932B
:1011FC00019BA0230293022303930323059302ADC7
:10120C00084C2946204601F051F840230293002354
:10121C00039304932946204601F048F8D3E700BF16
:10122C00003001400008014008B50A480A4B036031
:10123C004FF41653436000238360C36003610422A0
:10124C0042618361C36101F013FA00B908BDFFF775
:10125C002BFEFBE79C0100200038014008B50A4832
:10126C000A4B03604FF4E133436000238360C36097
:10127C0003610C2242618361C36101F0F9F900B989
:10128C0008BDFFF711FEFBE75401002000440040AD
:10129C0030B589B000230493059306930793036834
:1012AC00274A934204D0274A93422CD009B030BD30
:1012BC00254B9A6942F480429A619A6902F4804201
:1012CC000092009A9A6942F004029A619B6903F0B9
:1012DC0004030193019B4FF40073049302230593C1
:1012EC000323079304AD194C2946204600F0DEFF7A
:1012FC004FF48063049300230593069329462046FC
:10130C0000F0D4FFD2E7104BDA6942F40032DA6114
:10131C00DA6902F400320292029A9A6942F00402EB
:10132C009A619B6903F004030393039B0C230493BE
:10133C0002230593079304A9044800F0B7FFB5E70F
:10134C0000380140004400400010024000080140F9
:10135C00FEE7FEE7FEE7FEE7FEE7704770477047E3
:10136C0008B500F059FC08BD08B5022001F0B0F832
:10137C0008BD08B5042001F0ABF808BD08B54FF462
:10138C00005001F0A5F808BD82B00E4B9A6942F0EE
:10139C0001029A619A6902F001020092009ADA69DC
:1013AC0042F08052DA61DB6903F080530193019BB8
:1013BC00054A536823F0E06343F00073536002B0B6
:1013CC00704700BF00100240000001402DE9F047BB
:1013DC0082B00546884617461E4600F029FC0A9B3B
:1013EC001B1A03EB060900F023FC8246284B1B68F2
:1013FC00C3F3CB3309FB03F301932B689C6838EAE6
:10140C0004040CBF01230023BB423DD0B6F1FF3FC7
:10141C00F3D000F00DFCA0EB0A00484507D2019A6E
:10142C0002B14A46019B013B01939146E5E72A68CC
:10143C00536823F0E00353606B68B3F5827F0BD0E5
:10144C00AB6AB3F5005F14D0012385F8513000234B
:10145C0085F85030032018E0AB68B3F5004F02D08C
:10146C00B3F5806FECD12A68136823F04003136046
:10147C00E6E72A68136823F4005313602A6813689C
:10148C0043F400531360DFE7002002B0BDE8F0879F
:10149C000800002070B582B006460C461546009236
:1014AC000B4601220221FFF791FF48B90095234614
:1014BC00002280213046FFF789FF38B902B070BD99
:1014CC00736D43F0200373650320F7E7736D43F0EE
:1014DC00200373650320F1E710B582B004460B4678
:1014EC004168B1F5827F10D06168B1F5827F03D17C
:1014FC00A168B1F5806F15D00092002280212046A2
:10150C00FFF764FFE0B902B010BD8168B1F5004F80
:10151C0002D0B1F5806FE7D12068016821F040015D
:10152C000160E1E70092002201212046FFF74EFF07
:10153C000028E8D0636D43F0200363650320E2E7E5
:10154C00636D43F0200363650320DCE7002856D06D
:10155C0010B50446436A33B94368B3F5827F05D0AE
:10156C000023C36102E00023036143610023A362F3
:10157C0094F85130002B3CD0022384F8513022686F
:10158C00136823F040031360636803F48273A2684A
:10159C0002F404421343E26802F40062134322692A
:1015AC0002F002021343626902F001021343A269C2
:1015BC0002F400721343E26902F038021343226A08
:1015CC0002F080021343A26A02F400522168134312
:1015DC000B60638B226803F0040353602268D369A9
:1015EC0023F40063D36100206065012384F851303B
:1015FC0010BD84F850302046FFF7DAFDBCE701201F
:10160C0070472DE9F04383B00446894690461D4649
:10161C0000F00EFB94F85130012B40F0CD800646C3
:10162C00DFB2B9F1000F00F0C880B8F1000F00F084
:10163C00C48094F85030012B00F0C380012384F84F
:10164C005030032384F8513000236365C4F8309084
:10165C00A4F83480A4F83680A363A387E38763647B
:10166C002364A368B3F5004F1ED023681A6812F0E8
:10167C00400F03D11A6842F040021A60E368B3F5D8
:10168C00006F1CD0636813B1B8F1010F5FD1226BEE
:10169C00236812781A73236B01332363E38E9BB296
:1016AC00013B9BB2E38652E02268136823F04003AF
:1016BC0013602268136843F480431360D5E76368B2
:1016CC0013B1B8F1010F15D1226B23681288DA60BF
:1016DC00236B02332363E38E9BB2013B9BB2E38605
:1016EC0008E000F0A5FA801BA84202D3B5F1FF3F39
:1016FC0015D1A5B1E38E9BB2002B42D023689A681A
:10170C0012F0020FEDD0226B1288DA60236B0233D9
:10171C002363E38E9BB2013B9BB2E386EAE7012392
:10172C0084F85130002384F85030032745E0226BB5
:10173C0012781A73236B01332363B4F836C01FFA83
:10174C008CFC0CF1FF3C1FFA8CFCA4F836C0E38E29
:10175C009BB2B3B123689A6812F0020FE7D100F084
:10176C0067FA801BA84202D3B5F1FF3F01D1002DCF
:10177C00EDD1012384F85130002384F85030032735
:10178C001BE0324629462046FFF784FE08B1202391
:10179C006365A36833B901932368DA6801929B6887
:1017AC000193019B012384F85130002384F85030BD
:1017BC00636D13B9002700E00227384603B0BDE87B
:1017CC00F0830227F9E72DE9F04383B004468846FD
:1017DC0091461F460A9D00F02BFA064694F85130AC
:1017EC006268012B0BD0D9B2B2F5827F40F0048134
:1017FC00A368002B40F00481042940F00381B8F168
:10180C00000F00F00181B9F1000F00F0FF80002FF4
:10181C0000F0FE8094F85030012B00F0FB80012387
:10182C0084F8503094F85130042B02D0052384F8FE
:10183C00513000236365C4F83890E787A787C4F854
:10184C003080E786A7862364636423681A6812F0E5
:10185C00400F03D11A6842F040021A60E368B3F5F6
:10186C00006F11D063680BB1012F0BD1226B236871
:10187C0012781A73236B01332363E38E9BB2013B03
:10188C009BB2E386012771E063680BB1012F0BD18A
:10189C00226B23681288DA60236B02332363E38E96
:1018AC009BB2013B9BB2E38601271BE023689A683D
:1018BC0012F0010F0ED0E28F92B25AB1DA68A36B1C
:1018CC001A80A36B0233A363E38F9BB2013B9BB2E1
:1018DC00E387012700F0ACF9801BA84202D3B5F1D5
:1018EC00FF3F1ED1E38E9BB21BB9E38F9BB2002B43
:1018FC0062D023689A6812F0020FD7D0E28E92B2AF
:10190C00002AD3D0002FD1D0226B1288DA60236B3F
:10191C0002332363E38E9BB2013B9BB2E386002729
:10192C00C4E7012384F85130002384F8503003209D
:10193C0063E023689A6812F0010F0ED0E28F92B226
:10194C005AB1DA68A36B1A70A36B0133A363E38FEC
:10195C009BB2013B9BB2E387012700F069F9831B23
:10196C00AB4202D3B5F1FF3F1ED1EDB1E38E9BB27A
:10197C0013B9E38F9BB2FBB123689A6812F0020F84
:10198C00D7D0E28E92B2002AD3D0002FD1D0226BC6
:10199C0012781A73236B01332363E38E9BB2013BE2
:1019AC009BB2E3860027C4E7012384F8513000235F
:1019BC0084F85030032020E0324629462046FFF7B9
:1019CC0069FD90B9A36833B901932368DA68019271
:1019DC009B680193019B012384F85130002384F808
:1019EC005030636D4BB1012007E020236365002369
:1019FC0084F85030012000E0022003B0BDE8F083F1
:101A0C000220FAE70220F8E70120F6E70120F4E7CC
:101A1C000120F2E70220F0E72DE9F04383B01D46E8
:101A2C0090F85130012B40F0B48004468946904622
:101A3C00DFB24368B3F5827F01D1836893B300F0C2
:101A4C00F7F80646B9F1000F00F0A480B8F1000FCA
:101A5C0000F0A08094F85030012B00F09F800123FF
:101A6C0084F85030042384F8513000236365C4F8A3
:101A7C003890A4F83C80A4F83E802363A386E386C8
:101A8C0023646364A368B3F5004F15D023681A6808
:101A9C0012F0400F03D11A6842F040021A60E3685A
:101AAC00F3B143E0042380F85130009513460A4605
:101ABC00FFF789FE07466DE02268136823F04003A8
:101ACC0013602268136823F480431360DEE700F090
:101ADC00AFF8801BA84202D3B5F1FF3F15D1A5B1D9
:101AEC00E38F9BB2002B42D023689A6812F0010F4F
:101AFC00EDD0A26B1B7B1370A36B0133A363E38F3D
:101B0C009BB2013B9BB2E387EAE7012384F8513097
:101B1C00002384F8503003273CE000F089F8801B48
:101B2C00A84202D3B5F1FF3F19D1C5B1E38F9BB2E7
:101B3C00EBB123689A6812F0010FEED0DA68A36B50
:101B4C001A80A36B0233A363B4F83EC01FFA8CFC5B
:101B5C000CF1FF3C1FFA8CFCA4F83EC0E6E7012315
:101B6C0084F85130002384F85030032712E03246B9
:101B7C0029462046FFF7B0FC08B1202363650123FA
:101B8C0084F85130002384F85030636D13B900276A
:101B9C0000E00227384603B0BDE8F0830227F9E7DE
:101BAC0090F851007047000010B504460E4B1A789F
:101BBC004FF47A73B3FBF2F30C4A1068B0FBF3F0FA
:101BCC0000F0F8FC68B90F2C01D901200AE00022C2
:101BDC0021464FF0FF3000F0CFFC054B1C6000207D
:101BEC0000E0012010BD00BF000000200800002014
:101BFC000400002008B5074A136843F01003136073
:101C0C00032000F0A7FC0020FFF7CEFFFFF7BCFB82
:101C1C00002008BD00200240034A1168034B1B78CA
:101C2C000B441360704700BFE4010020000000204B
:101C3C00014B1868704700BFE401002038B504461A
:101C4C00FFF7F6FF0546B4F1FF3F02D0044B1B78BB
:101C5C001C44FFF7EDFF401BA042FAD338BD00BF78
:101C6C000000002082B0084B1B68084AA2FB03232B
:101C7C005B0A00FB03F3019300BF019B5A1E019208
:101C8C00002BF9D102B0704708000020D34D621030
:101C9C00002800F0F18170B582B00446036813F09F
:101CAC00010F2CD0994B5B6803F00C03042B1DD057
:101CBC00964B5B6803F00C03082B12D06368B3F5EA
:101CCC00803F41D0002B55D103F1804303F5043301
:101CDC001A6822F480321A601A6822F480221A6080
:101CEC0037E08A4B5B6813F4803FE7D0874B1B6867
:101CFC0013F4003F03D06368002B00F0BF8123680E
:101D0C0013F0020F75D0814B5B6813F00C0F5FD092
:101D1C007E4B5B6803F00C03082B54D02369002B1B
:101D2C0000F08A807A4B01221A60FFF781FF05468A
:101D3C00764B1B6813F0020F75D1FFF779FF401B30
:101D4C000228F5D903209EE1704A136843F48033CE
:101D5C001360636843B3FFF76BFF05466B4B1B685F
:101D6C0013F4003FCBD1FFF763FF401B6428F5D978
:101D7C00032088E1B3F5A02F09D0644B1A6822F434
:101D8C0080321A601A6822F480221A60E1E703F1AB
:101D9C008043A3F53C331A6842F480221A601A6817
:101DAC0042F480321A60D4E7FFF742FF0546574BE6
:101DBC001B6813F4003FA2D0FFF73AFF401B6428C6
:101DCC00F5D903205FE1514B5B6813F4803FA5D13B
:101DDC004E4B1B6813F0020F03D02369012B40F00C
:101DEC004F814A4A136823F0F803616943EAC1033F
:101DFC001360236813F0080F33D0A369002B5CD059
:101E0C00434B0122C3F88024FFF712FF05463F4BDA
:101E1C005B6A13F0020F21D1FFF70AFF401B022867
:101E2C00F5D903202FE1394A136823F0F8036169CF
:101E3C0043EAC1031360DCE7354B00221A60FFF75D
:101E4C00F7FE0546314B1B6813F0020FD1D0FFF79C
:101E5C00EFFE401B0228F5D9032014E10120FFF707
:101E6C0001FF236813F0040F00F09680274BDB6909
:101E7C0013F0805F34D1254BDA6942F08052DA617D
:101E8C00DB6903F080530193019B0125214B1B68F7
:101E9C0013F4807F26D0E368012B3DD0002B53D167
:101EAC0003F1804303F504331A6A22F001021A622B
:101EBC001A6A22F004021A6233E0154B0022C3F8AE
:101ECC008024FFF7B5FE0546104B5B6A13F0020F3A
:101EDC00C7D0FFF7ADFE401B0228F5D90320D2E096
:101EEC000025D3E70B4A136843F480731360FFF7A4
:101EFC009FFE0646074B1B6813F4807FCBD1FFF780
:101F0C0097FE801B6428F5D90320BCE0001002402A
:101F1C0000004242007000405F4A136A43F0010324
:101F2C001362E36833B3FFF783FE06465A4B1B6A12
:101F3C0013F0020F2FD1FFF77BFE801B41F2883389
:101F4C009842F3D903209EE0052B09D0524B1A6A14
:101F5C0022F001021A621A6A22F004021A62E0E705
:101F6C004D4B1A6A42F004021A621A6A42F00102DC
:101F7C001A62D6E7FFF75CFE0646474B1B6A13F066
:101F8C00020F08D0FFF754FE801B41F288339842B1
:101F9C00F3D9032077E0E5B9E369002B72D03E4A10
:101FAC00526802F00C02082A56D0022B17D03B4B79
:101FBC0000221A66FFF73CFE0446374B1B6813F0F1
:101FCC00007F47D0FFF734FE001B0228F5D9032011
:101FDC0059E0314AD36923F08053D361DCE72F4BAE
:101FEC0000221A66FFF724FE05462B4B1B6813F0E4
:101FFC00007F06D0FFF71CFE401B0228F5D90320FA
:10200C0041E0236AB3F5803F1AD023494B6823F48F
:10201C007413226A606A024313434B601F4B012204
:10202C001A66FFF705FE04461B4B1B6813F0007F76
:10203C000ED1FFF7FDFD001B0228F5D9032022E08D
:10204C00154A536823F40033A1680B435360DCE753
:10205C00002018E0002016E0012B16D00E4B5B6818
:10206C0003F48031226A914211D103F47013626A35
:10207C0093420ED1002006E001207047012002E0BF
:10208C00012000E0002002B070BD0120FBE7012020
:10209C00F9E70120F7E700BF0010024000004242C0
:1020AC000F4B5B6803F00C02082A01D00D487047F7
:1020BC00C3F383420C49885C13F4803F0BD0084B6C
:1020CC005B68C3F34043094AD35C064A02FB00F049
:1020DC00B0FBF3F07047064B03FB00F0704700BFFA
:1020EC000010024000127A008C4500088845000858
:1020FC0000093D00002800F0A08070B50D46044694
:10210C00524B1B6803F007038B420BD24F4A1368E8
:10211C0023F007030B431360136803F007038B4290
:10212C0040F08D80236813F0020F17D013F0040FCA
:10213C0004D0474A536843F4E0635360236813F0B8
:10214C00080F04D0424A536843F460535360404A2A
:10215C00536823F0F003A1680B435360236813F01A
:10216C00010F31D06368012B20D0022B25D0384AC7
:10217C00126812F0020F64D035494A6822F003024B
:10218C0013434B60FFF754FD0646314B5B6803F07D
:10219C000C036268B3EB820F16D0FFF749FD801B6E
:1021AC0041F288339842F0D9032045E0284A12685E
:1021BC0012F4003FE0D101203EE0254A126812F0F3
:1021CC00007FD9D1012037E0204B1B6803F00703B7
:1021DC00AB420AD91D4A136823F007032B43136043
:1021EC00136803F00703AB422DD1236813F0040FDF
:1021FC0006D0174A536823F4E063E1680B4353603D
:10220C00236813F0080F07D0114A536823F4605366
:10221C00216943EAC1035360FFF742FF0C4B5B6833
:10222C00C3F303130B4AD35CD8400B4B18600B4B16
:10223C001868FFF7B9FC002070BD01207047012021
:10224C00FAE70120F8E70120F6E700BF0020024082
:10225C0000100240A44500080800002004000020E3
:10226C00014B1868704700BF0800002008B5FFF745
:10227C00F7FF044B5B68C3F30223034AD35CD840DB
:10228C0008BD00BF001002409C45000808B5FFF7D0
:10229C00E7FF044B5B68C3F3C223034AD35CD8400B
:1022AC0008BD00BF001002409C45000870B582B00C
:1022BC000024A4469EE07C4DAB4214D00CD8A5F56E
:1022CC008015AB420FD005F57025AB420BD0A5F5B0
:1022DC008015AB421FD106E0744DAB4203D005F51F
:1022EC008035AB4217D18B68A3B1012B0DD0426165
:1022FC00082410E0CC680EE0CC6804340BE0CC6809
:10230C00083408E0CC680C3405E00261082402E0D3
:10231C00002400E00424BEF1FF0F37D806464FEA34
:10232C008C0233680F25954023EA050304FA02F268
:10233C00134333604B6813F0805F59D05C4B9A6940
:10234C0042F001029A619B6903F001030193019B26
:10235C004FEA9C02951C574B53F825600CF0030573
:10236C00AD000F23AB4026EA0306534B984214D022
:10237C0003F58063984279D003F58063984277D057
:10238C0003F58063984206D0042307E0061DACF1E8
:10239C0008029200C5E7032300E00023AB4033435F
:1023AC000232444D45F822304B6813F4801F61D043
:1023BC00424A936843EA0E0393604B6813F4001F80
:1023CC005ED03E4AD36843EA0E03D3604B6813F4E5
:1023DC00003F5BD0394A536843EA0E0353604B68A5
:1023EC0013F4803F58D0354A136843EA0E03136048
:1023FC000CF1010C0B6833FA0CF253D0012202FAE7
:10240C000CF203EA020E32EA0303F1D14B68122BF1
:10241C003FF651AF122B3FF67EAF01A555F823F0D6
:10242C00F3220008012300080B2300081D230008D9
:10243C002323000823230008232300082323000858
:10244C002323000823230008232300082323000848
:10245C002323000823230008232300082323000838
:10246C00232300080523000811230008012395E706
:10247C00022393E7114A936823EA0E0393609CE7C7
:10248C000E4AD36823EA0E03D3609FE70B4A5368C6
:10249C0023EA0E035360A2E7084A136823EA0E03EB
:1024AC001360A5E702B070BD0000221000003110CF
:1024BC0000100240000001400008014000040140EF
:1024CC000AB101617047090401617047704700004F
:1024DC0008B5054B5B69034200D108BD024B58613E
:1024EC00FFF7F4FFF9E700BF00040140002808DB08
:1024FC000901C9B200F1604000F5614080F8001399
:10250C00704700F00F000901C9B2014B1954704714
:10251C0014ED00E000B500F00700C0F1070CBCF1B1
:10252C00040F28BF4FF0040C031D062B0FD9C31E3C
:10253C004FF0FF3E0EFA0CF021EA000199400EFA22
:10254C0003FE22EA0E0241EA02005DF804FB0023BE
:10255C00EEE70000074AD36823F4E0631B041B0C6E
:10256C00000200F4E060034343F0BF6343F4003324
:10257C00D360704700ED00E010B50446054BD868F9
:10258C00C0F30220FFF7C6FF01462046FFF7AEFF5F
:10259C0010BD00BF00ED00E0002807DB00F01F02BB
:1025AC00400901239340024A42F82030704700BF93
:1025BC0000E100E00138B0F1807F0BD24FF0E02356
:1025CC005861054AF02182F82310002098610722F7
:1025DC001A6170470120704700ED00E010B5044609
:1025EC000268136923F44053C1680B431361836879
:1025FC000269134342691A430168CB6823F4B05350
:10260C0023F00C031343CB600268536923F440732B
:10261C0081690B4353610268134B9A4220D0FFF738
:10262C0025FE024602EB820202EB820263689B00EB
:10263C00B2FBF3F20D48A0FB02314909642303FB02
:10264C0011231B013233A0FB03035B0903F0F002DF
:10265C0002EB011203F00F03216813448B6010BDD1
:10266C00FFF714FE0246DDE7003801401F85EB51F1
:10267C0060B310B5044690F8413013B3242384F8AA
:10268C0041302268D36823F40053D3602046FFF70F
:10269C00A5FF2268136923F49043136122685369E0
:1026AC0023F02A0353612268D36843F40053D360A8
:1026BC0000206064202384F8413084F84230606349
:1026CC0010BD80F84030FEF7E3FDD7E701207047DE
:1026DC0081628285C28500234364222380F84230C4
:1026EC00036923B10268D36843F48073D360026832
:1026FC00536943F0010353610268D36843F020032C
:10270C00D3600020704708B590F84230202B08D1D8
:10271C0049B10AB9012008BD00230363FFF7D8FFB4
:10272C00F9E70220F7E70120F5E7704710B50346FB
:10273C000C4A0D490D48006840B10C480068034430
:10274C00521A934206D8094A136010BD0748084C28
:10275C000460F2E701F046F80C2303604FF0FF3001
:10276C00F3E700BF0050002000040000E801002047
:10277C00F007002008B50B480B4B03600B4B436074
:10278C0000238360C3604FF4804202614361836124
:10279C00C361036200F0ECF900B908BDFEF784FBDD
:1027AC00FBE700BFEC01002000540040A0860100B4
:1027BC0010B586B00023029303930493059302682B
:1027CC00154B9A4201D006B010BD144CA36943F0CE
:1027DC000803A361A36903F008030093009B4FF463
:1027EC0040730293122303930323059302A90C480D
:1027FC00FFF75CFD0B4A536843F0E06343F00203C0
:10280C005360E36943F40013E361E36903F40013D9
:10281C000193019BD7E700BF005400400010024019
:10282C00000C01400000014003685A6912F4806FEB
:10283C0001D1002070476FF480625A61002303635A
:10284C00202280F83D2080F83E30026C42F00402D9
:10285C00026480F83C30012070472DE9F0410646B7
:10286C000C46174698463BE0FFF7E2F9069BC01A68
:10287C00404502D8B8F1000F32D1012D18D0336881
:10288C009B6924EA03039BB2B3FA83F35B099F426F
:10289C0026D100233363202286F83D2086F83E3073
:1028AC00326C42F02002326486F83C30012027E082
:1028BC0033685B6924EA03039BB2B3FA83F35B09C5
:1028CC00E5E733685B6924EA030C1FFA8CFCBCFA5D
:1028DC008CFC4FEA5C1C674511D1B8F1FF3FC3D1AA
:1028EC00C4F30745012DECD033689B6924EA030C33
:1028FC001FFA8CFCBCFA8CFC4FEA5C1CEBE700204A
:10290C00BDE8F0812DE9F84305460E469046994600
:10291C0053E01A6842F400721A602B686FF48062FC
:10292C005A6100232B63202285F83D2085F83E3028
:10293C002A6C42F004022A6485F83C3001204AE0FB
:10294C00FFF776F9A0EB0900404502D8B8F1000F6B
:10295C0033D1012F17D02B689B6926EA03039BB256
:10296C00003B18BF012343B300232B63202285F8BF
:10297C003D2085F83E302A6C42F020022A6485F80E
:10298C003C30012027E02B685B6926EA03039BB2ED
:10299C00003B18BF0123E6E72B689C6926EA040478
:1029AC00A4B2003C18BF0124A4B12B685A6912F4DC
:1029BC00806FAED1B8F1FF3FC2D1C6F30747012FEC
:1029CC00EAD12B685C6926EA0404A4B2003C18BF67
:1029DC000124E9E70020BDE8F88370B504460D46F4
:1029EC00164623685B6913F0800F21D12046FFF750
:1029FC001BFFF8B9B5F1FF3FF3D0FFF719F9801BB6
:102A0C00A84201D8002DECD123685B6913F0800F2C
:102A1C00E7D100232363202284F83D2084F83E3044
:102A2C00226C42F02002226484F83C30012000E049
:102A3C00002070BD0120FCE72DE9F04385B0044671
:102A4C000D4691461F46DDF830800D9E03681968CF
:102A5C0041F4807119600096434600224FF0011139
:102A6C00FFF7FBFE60B9236805F0FE051D613346D8
:102A7C00424626492046FFF745FF68B1012008E091
:102A8C0023681B6813F4807F02D04FF40073236417
:102A9C00032005B0BDE8F0830023039323685A6933
:102AAC0003929B690393039B324641462046FFF7F2
:102ABC0094FF30B9012F0FD123685FFA89F61E619C
:102ACC00E7E7236C042B01D00120E2E722681368AE
:102ADC0043F400731360F7E723684FEA19221A6175
:102AEC00324641462046FFF778FF20B923685FFA4B
:102AFC0089F61E61CDE7236C042B01D00120C8E7B9
:102B0C002268136843F400731360F7E702000100B6
:102B1C0070B504460D46164623685B6913F0040F26
:102B2C0021D12046FFF780FEF8B9B5F1FF3FF3D075
:102B3C00FFF77EF8801BA84201D8002DECD123684A
:102B4C005B6913F0040FE7D100232363202284F880
:102B5C003D2084F83E30226C42F02002226484F83E
:102B6C003C30012000E0002070BD0120FCE700009B
:102B7C00002800F0CC8070B5044690F83D30002B56
:102B8C0077D0242384F83D302268136823F00103A6
:102B9C0013602268136843F40043136022681368BF
:102BAC0023F400431360FFF761FB62685A4B9A42AF
:102BBC0064D85A4B98428CBF00230123002B40F061
:102BCC00A8805749A1FB00318B0C25686A6822F05C
:102BDC003F0242EA91426A6021680A6A22F03F028F
:102BEC0066684D4DAE424FD8013313430B622168DA
:102BFC00CA6922F44F4222F0FF026568464B9D429F
:102C0C004CD8431E6D00B3FBF5F3013340F6FC705A
:102C1C00034278D0C3F30B031A43CA6121680B68D3
:102C2C0023F0C003E269206A024313430B6021685E
:102C3C008B6823F4034323F0FF032269E06802430B
:102C4C0013438B602168CB6823F0FF036269A06992
:102C5C0002431343CB602268136843F001031360F3
:102C6C0000202064202384F83D30206384F83E004B
:102C7C0070BD80F83C30FFF79BFD82E7294B9842F2
:102C8C008CBF0023012399E74FF4967505FB03F3E2
:102C9C00254DA5FB03539B090133A6E7A668BEB9D6
:102CAC00431E05EB450CB3FBFCF30133C3F30B03E1
:102CBC00B3FA83F35B0943BBC6B9431E05EB450569
:102CCC00B3FBF5F30133C3F30B0343F40043A3E766
:102CDC00431E05EB850C0CEB8C0CB3FBFCF30133A6
:102CEC00C3F30B03B3FA83F35B09E4E7431E05EB71
:102CFC00850505EB8505B3FBF5F30133C3F30B0336
:102D0C0043F4404388E7042386E7012384E701204A
:102D1C0070470120ACE700BFA08601007F841E0035
:102D2C0083DE1B43FF083D00D34D62102DE9F043B9
:102D3C0083B004460F46904699460C9EFEF778FFEA
:102D4C0094F83D20202A03D0022003B0BDE8F08384
:102D5C0005460090192301224A492046FFF77DFDC4
:102D6C00002840F0898094F83C30012B00F08680DC
:102D7C00012384F83C3023681A6812F0010F03D148
:102D8C001A6842F001021A602268136823F4006387
:102D9C001360212384F83D30402384F83E30002317
:102DAC0023640A9B6362BDF82C306385638D238595
:102DBC00354BE362019500964B4642463946204618
:102DCC00FFF73AFE00285BD1238D002B35D02A4625
:102DDC0031462046FFF701FE20BB626A2368127859
:102DEC001A61626A531C6362218D013989B2218593
:102DFC00638D9BB2013B9BB263852368586910F0CD
:102E0C00040FE1D00029DFD052781A61636A0133D4
:102E1C006362238D013B2385638D9BB2013B9BB287
:102E2C006385D1E7236C042B01D001208DE7226848
:102E3C00136843F400731360F7E72A4631462046C3
:102E4C00FFF766FE50B1236C042B01D001207CE708
:102E5C002268136843F400731360F7E72268136861
:102E6C0043F400731360202384F83D30002384F86E
:102E7C003E3084F83C3068E7022066E7022064E7C5
:102E8C00012062E7020010000000FFFFF8B50446C5
:102E9C000E4617461D46002281880068FFF710FB7E
:102EAC004FF4FA633A463146A069FEF7AAFBA069D3
:102EBC00FEF776FE0128FAD14FF4FA63BDF818201C
:102ECC002946A069FEF7A8FDA069FEF769FE012856
:102EDC00FAD10122A1882068FFF7F2FAF8BDF8B503
:102EEC0004460E4617461D46002281880068FFF7EF
:102EFC00E7FA4FF4FA633A463146A069FEF781FBD4
:102F0C00A069FEF74DFE0128FAD14FF4FA63BDF823
:102F1C0018202946A069FEF774FBA069FEF740FE55
:102F2C000128FAD10122A1882068FFF7C9FAF8BD5F
:102F3C0000B585B001F07F018DF80E1001220092D2
:102F4C000DF10F030DF10E01FFF7A0FF9DF80F001F
:102F5C0005B05DF804FB00B585B061F07F018DF81C
:102F6C000E108DF80F20012200920DF10F030DF1C0
:102F7C000E01FFF7B4FF05B05DF804FB38B504464D
:102F8C000D460121FFF7D4FF0246062D09D8DFE8D4
:102F9C0005F0040D0815081D250000F0F8020023AB
:102FAC00E36101212046FFF7D6FF38BD20F0070270
:102FBC0042F00102D2B20123E361F2E720F00702F2
:102FCC0042F00302D2B20323E361EAE720F00702E6
:102FDC0042F00502D2B20523E361E2E720F00702DA
:102FEC0042F00602D2B20623E361DAE738B50446B2
:102FFC000D462621FFF79CFF55B140F00802D2B2D6
:10300C0026212046FFF7A7FF0A20FEF717FE38BD42
:10301C0000F0F702F4E70000D0B594B0044650225B
:10302C000F49684600F00AFC94F8242094F82530E7
:10303C0014A901EBC30353E9146701209040FDF779
:10304C00B9F932463B46FDF749FBFDF72FFC10283A
:10305C00D4BF002101212046FFF7C8FF14B0D0BD1A
:10306C001044000838B50446CA045511C2F347523F
:10307C000621FFF770FF0520FEF7E0FD2A0AD2B209
:10308C0007212046FFF767FF0520FEF7D7FD00223A
:10309C0008212046FFF75FFF0520FEF7CFFD38BD66
:1030AC0070B505460C2904DC0C46062902DC072405
:1030BC0000E00C241E212846FFF73AFF06460A20A2
:1030CC00FEF7BCFD2201D2B206F00F063244D2B29A
:1030DC001E212846FFF73FFF0A20FEF7AFFD2846CA
:1030EC00FFF79AFF70BD08B50A460921FFF733FFB9
:1030FC000A20FEF7A3FD08BD08B52C290DD9F0292F
:10310C000CD9F021F0291CD81E310F4B83FB012365
:10311C00CA17C2EBA302D2B20AE02D217829F1D84A
:10312C002D39094B83FB0123CA17C2EB6302D2B2C0
:10313C002032D2B20B21FFF70EFF0A20FEF77EFDE4
:10314C0008BD0022F4E700BF6766666610B504464A
:10315C001E21FFF7EDFE40F00702D2B21E212046E1
:10316C00FFF7F9FE0A20FEF769FD10BD012070473C
:10317C0038B50446FFF7FAFF10B940F2F71038BD26
:10318C0000212046FFF7FAFE0A20FEF757FD012129
:10319C002046FFF7CDFE05460A20FEF74FFD65F0F1
:1031AC007F02D2B201212046FFF7D5FE6420FEF744
:1031BC0045FD216A2046FFF755FF94F82A1020465A
:1031CC00FFF791FF94F82B102046FFF795FF232271
:1031DC000C212046FFF7BFFE2046FFF7B7FF94F8FF
:1031EC0024102046FFF75CFFFF221F212046FFF72B
:1031FC00B2FE94F825201201D2B294F826305B006E
:10320C00DBB21A4402F0FE021D212046FFF7A3FE9A
:10321C002046FFF701FF228D120A20212046FFF7DE
:10322C009AFE94F8282021212046FFF794FE402195
:10323C002046FFF77DFE40F03F02D2B240212046EF
:10324C00FFF789FE01212046FFF798FE0123E36179
:10325C000A20FEF7F3FC42212046FFF769FE1228F4
:10326C0002D04FF4CA708AE7C82088E700B587B04F
:10327C008DF817004FF0FF330293012301930DF1EA
:10328C0017020092002278210248FFF74FFD07B089
:10329C005DF804FBEC01002000B585B04FF0FF3366
:1032AC00029389B2019100900123402278210348B6
:1032BC00FFF73CFD05B05DF804FB00BFEC010020FE
:1032CC0008B530B900214FF48062034800F070FA61
:1032DC0008BDFF21F7E700BF4802002010B500240D
:1032EC0012E0A4F15000C0B2FFF7C0FF0020FFF7BE
:1032FC00BDFF1020FFF7BAFF8021054800EBC4107A
:10330C00FFF7CAFF0134E4B2072CEAD910BD00BFA5
:10331C004802002010F0800F1ED13F291CD810B499
:10332C00012A0ED0CB0800EBC3100C4C225C01F030
:10333C00070101238B40DB435BB21340235410BCC9
:10334C007047CB0800EBC310044C235C01F0070161
:10335C008A4013432354F2E7704700BF4802002011
:10336C002DE9F04784B0814604A800E90E009DF8D1
:10337C003080A9F12003DBB25E2B46D8039B83B1CE
:10338C00A9F120029E5C254B1B883344802B40DC2A
:10339C00224B5B889DF805A05344402B3BDC002559
:1033AC0022E09DF80460EEE71C4B188859882944EC
:1033BC002044B8FA88F25209C9B2C0B2FFF7AAFF8A
:1033CC000134A6420FD907FA04F313F4004FEBD0E3
:1033DC00124B18885988294420444246C9B2C0B2BD
:1033EC00FFF798FFECE70135AA4508D9A9F12003AE
:1033FC0003FB0A53029A32F813700024E1E7074BDF
:10340C001A8816441E80484600E0002004B0BDE82F
:10341C00F0870020FAE70020F8E700BF4002002008
:10342C0030B587B0044606A800E90E009DF8285078
:10343C0000E00134207848B1009506AB13E90E008A
:10344C00FFF78EFF034620788342F2D007B030BDE1
:10345C00014B1880598070474002002010B504467B
:10346C008120FFF703FF2046FFF700FF10BD00008F
:10347C0008B530B1054B01225A71AF20FFF7F6FEAB
:10348C0008BD024B00225A71AE20F7E74002002023
:10349C0008B56420FEF7D2FB0020FFF7E9FF2020DF
:1034AC00FFF7E4FE0020FFF7E1FEB020FFF7DEFEA1
:1034BC00C820FFF7DBFE0020FFF7D8FE1020FFF737
:1034CC00D5FE4020FFF7D2FEFF20FFF7C7FFA1205B
:1034DC00FFF7CCFEA620FFF7C9FEA820FFF7C6FE1B
:1034EC003F20FFF7C3FEA420FFF7C0FED320FFF759
:1034FC00BDFE0020FFF7BAFED520FFF7B7FEF02087
:10350C00FFF7B4FED920FFF7B1FE2220FFF7AEFE85
:10351C00DA20FFF7ABFE1220FFF7A8FEDB20FFF747
:10352C00A5FE2020FFF7A2FE8D20FFF79FFE1420A2
:10353C00FFF79CFE0120FFF79BFF0020FFF7C0FE6A
:10354C00FFF7CCFE034B00221A805A8001221A711D
:10355C0008BD00BF4002002008B501220249034803
:10356C00FFF7D1F808BD00BFA00600209C01002089
:10357C0070B506460D461049FDF782FBFDF71CFCA5
:10358C000446642004FB00F0FDF772FA0146304655
:10359C00FDF7B8F90949FDF773FB06462046FDF720
:1035AC0067FA3146FDF7B0F9532D01D0572D01D1F3
:1035BC0000F1004070BD00BF0000C8420000704226
:1035CC0010B588B004460622434900F0F9F860B300
:1035DC0006224249204600F0F3F8002850D006227B
:1035EC003F49204600F0ECF8002862D006223D4905
:1035FC00204600F0E5F8002859D13B4B03F11002AE
:10360C00059203F10C02049203F109020392A3F157
:10361C001402029203F1080201921A1D00921A1F61
:10362C003249204600F096F841E0314B03F11C0280
:10363C00079203F11802069203F11402059203F1AA
:10364C001002049203F10C02039203F1090202929C
:10365C001A1F019203F1080200921A1D25492046F7
:10366C0000F078F8002822DD234C217E2069FFF73A
:10367C007FFF6060617EE068FFF77AFF206016E0F4
:10368C001B4B03F12802059203F12402049203F16F
:10369C002002039203F1090202921A1F019203F114
:1036AC00080200921A1D1549204600F053F808B084
:1036BC0010BD134B03F1240203921A1F02925A1CE1
:1036CC000192A3F10C020092A3F108020D492046CD
:1036DC0000F040F8EBE700BFE44400081445000894
:1036EC003C450008604500088C0600206845000831
:1036FC0058060020EC440008480600201C45000831
:10370C006006002044450008FFF70FF80B480C49F1
:10371C000C4A002302E0D458C4500433C4188C4221
:10372C00F9D3094A094C002301E013600432A24288
:10373C00FBD300F05DF8FDF7EBFB704700000020B9
:10374C005C0000204C5400085C000020EC070020BA
:10375C00FEE700000EB44FF4017270B500259DB069
:10376C0021AC54F8046BADF814201B950290069014
:10377C00FCF7C6FC0B4B03900B934FF6FF730790B3
:10378C000948ADF816303246234602A900680F9559
:10379C001495019400F0B0F91DB0BDE8704003B071
:1037AC00704700BFB93700080C000020002070479C
:1037BC0003460244934200D1704703F8011BF9E71A
:1037CC0010B56AB10139841810F8012B11F8013FBA
:1037DC009A4203D1A04201D0002AF5D1D01A10BDD3
:1037EC001046FCE7014B1868704700BF0C00002026
:1037FC0070B500260C4D0D4B5B1B9C10A64209D1DD
:10380C00002600F0F3FD0A4D0A4B5B1B9C10A642F0
:10381C0005D170BD55F8043B98470136EEE755F8D5
:10382C00043B98470136F2E744540008445400081E
:10383C004454000848540008704770470A449142A9
:10384C0000F1FF3300D1704710B511F8014B9142D4
:10385C0003F8014FF9D110BD38B50546002940D009
:10386C0051F8043C0C1F002BB8BFE41800F0DEF834
:10387C001C4A136833B9636014602846BDE83840AD
:10388C0000F0DAB8A34208D9206821188B4201BF96
:10389C0019685B6809182160EDE71A465B680BB183
:1038AC00A342FAD911685018A0420BD120680144E8
:1038BC00501883421160E0D118685B6808441060AE
:1038CC005360DAE702D90C232B60D6E72068211865
:1038DC008B4201BF19685B680918216063605460F2
:1038EC00CBE738BDE807002070B50F4E0C463168A9
:1038FC00054611B900F03AFC30602146284600F02C
:10390C0035FC431C03D14FF0FF34204670BDC41C62
:10391C0024F00304A042F8D0211A284600F026FC1B
:10392C000130F2D1EFE700BFE40700202DE9F843A6
:10393C00CD1C25F0030508350C2D38BF0C25002DAA
:10394C00064601DBA94204D90C2333600020BDE8F4
:10395C00F883DFF8D48000F069F8D8F800301C4602
:10396C0044BB29463046FFF7BFFF431C044658D1E1
:10397C00D8F800402746002F43D1002C4BD02368A9
:10398C003946304604EB030900F0F0FB814542D187
:10399C00216830466D1A2946FFF7A6FF01303AD050
:1039AC0023682B442360D8F800305A6862BBC8F8EF
:1039BC0000700FE02268521B20D40B2A17D9611912
:1039CC00A342256018BF5960636808BFC8F800108F
:1039DC0062514B60304600F02FF804F10B00231DB0
:1039EC0020F00700C21A1CBF1B1AA350AFE7626875
:1039FC00A3420CBFC8F800205A60EBE7234664686A
:103A0C00AEE73C467F68B6E71A465B68A342FBD13B
:103A1C0000235360DEE70C233046336000F00CF8D3
:103A2C0094E70560D6E700BFE80700200148FFF7E0
:103A3C0003BF00BFE00700200148FFF7FEBE00BF38
:103A4C00E007002038B54B1C144603D14FF0FF356E
:103A5C00284638BD9389CDB223F020039381636B44
:103A6C0052688BB1A36B934208DD23685A1E226007
:103A7C0003F8015C636801336360E9E7214600F0F9
:103A8C003CFB0028F1D0E1E72169236851B1994250
:103A9C0008D213F8011CA94204D1013B0132236066
:103AAC006260D5E7C4E90F3204F144036363032376
:103ABC00A363234603F8465F23600123DCE710B5BC
:103ACC000C46496B69B104F14403994201D0FFF7EC
:103ADC00C3FE0020236C6063636013B1E36B23604F
:103AEC0010BD23694FF0FF30236000236360A3896E
:103AFC0043F02003A381F3E72DE9F04F0D4600219D
:103B0C00ADF5237D0746E84641ACC4E9031101A994
:103B1C006161AE49DFF8B8B2C4F87C11AD490093CD
:103B2C00C4F8801192F80090B9F1000F00F0608198
:103B3C001BF80930561C13F008031BD06B68002BC4
:103B4C0010DD2B681A781BF80220120701D43246BC
:103B5C00E8E722690133013222616A682B60013A7D
:103B6C006A60EBE729463846D4F88031984700283C
:103B7C00E7D0ECE7B9F1250F40F085802360A36016
:103B8C0053782A2B04BF1023961C4FF00A0208BF4F
:103B9C002360B2461AF8011BA1F13003092B1DD981
:103BAC008D4B0322184600F0F1FA38B18A4B564679
:103BBC00C01A0123226883401343236016F8013B8B
:103BCC00782B06D8572B10D8252B5CD056D8002B29
:103BDC0075D00323A3610A23636088E0A36856466B
:103BEC0002FB03113039A160D3E7A3F15802202A5C
:103BFC00EFD801A151F822F0D93C0008DF3B0008B6
:103C0C00DF3B0008353D0008DF3B0008DF3B0008C8
:103C1C00DF3B0008DF3B0008DF3B0008DF3B000810
:103C2C00DF3B00084B3D0008313D00088F3C00088D
:103C3C008F3C00088F3C0008DF3B0008EB3C000881
:103C4C00DF3B0008DF3B0008DF3B0008DF3B0008E0
:103C5C005B3D0008F33C0008D13C0008DF3B00084A
:103C6C00DF3B0008573D0008DF3B0008313D0008F2
:103C7C00DF3B0008DF3B0008D93C0008453B022B2A
:103C8C00A7D8052332E06B68002B0DDD2B681A7862
:103C9C004A4540F0AD8001336A682B602369013AD4
:103CAC0001336A60236152E729463846D4F88031E3
:103CBC0098470028EAD0E068002840F091804FF047
:103CCC00FF3091E0226842F020022260226842F428
:103CDC000072226010226E2B626006D801E0002375
:103CEC006360032302E0082363600423A3616B6811
:103CFC00002B3CDD2368590605D42B681A781BF879
:103D0C00022012073BD4A369022B4BDC43462A4604
:103D1C002146384600F06EF8012869D002287FF45D
:103D2C0016AFC8E70A22D6E7314601A800F0ACF975
:103D3C002368064643F0400323600123D6E723683B
:103D4C0043F0400323600023D0E70223CEE7206832
:103D5C00C3063FF5FCAED8F800302269191DC8F82F
:103D6C0000101B68C0074CBF1A801A60EFE629468A
:103D7C003846D4F8803198470028BBD09BE722699D
:103D8C00013222616A68013A002A6A6002DD01335D
:103D9C002B60B2E729463846D4F880319847002882
:103DAC00ABD088E7042B06DC43462A46214638462E
:103DBC0000F07AF8B0E7094B002B3FF4C8AE43464D
:103DCC002A4621463846AFF30080A5E7513A000851
:103DDC003C530008CB3A00081C53000800000000BC
:103DEC00AB895B063FF56BAF0DF5237DBDE8F08F1E
:103DFC00E068F9E72DE9F84315468A6880460C46D9
:103E0C0032B98A69002A14BF4FF0FF3201228A604E
:103E1C0000272268DFF88C90D1065FBF1A68111D4D
:103E2C0019601668A06988B1012807D12B681A7827
:103E3C0063699B5C53B9002F31D022E0022820D15A
:103E4C002B681B7819F803301B071AD42368013729
:103E5C00DA065EBF2B681B7806F8013B2A686B6894
:103E6C0001322A60A268013B013A6B60A26042B148
:103E7C00002BD7DC29464046D4F8803198470028DF
:103E8C00D0D0236813F0100305D1E2680132E26050
:103E9C00A26902B13370002023693B442361BDE861
:103EAC00F88300BF3C5300082DE9F04F0C469846B0
:103EBC00714B87B08246164693E8070003AB83E844
:103ECC0007006E4BA1696E4A2746032908BF1A46A4
:103EDC00A36801925A1EB2F5AE7F81BF6FF4AE7526
:103EEC0003EB050940F25D13A36057F81C3B98BF28
:103EFC004FF000093D464FF0000B43F45063236034
:103F0C00316803AB0222097853F82B0000F03EF91C
:103F1C0028B3BBF1010F58D162682AB90821226875
:103F2C00616042F400722260226822F4A062226076
:103F3C00A268511EA16092B13268511C3160127896
:103F4C0005F8012B7268013A002A726007DC3146D1
:103F5C005046D4F880219047002840F083800BF124
:103F6C00010BBBF1030FCBD1616809B90A21616068
:103F7C00444B6069591A00F087F84FF0000BA368A6
:103F8C002268002B3DD03168606991F800C010F8B0
:103F9C000C00002835D0BCF1300F24D1100522D5EF
:103FAC000BF1010BB9F1000F03D0013309F1FF390B
:103FBC00A3607368013B002B73601BDD3368013316
:103FCC003360A368013BA360D9E7BBF1020FAFD10B
:103FDC00226802F4C061B1F5007FC5D1102142F412
:103FEC0080726160A3E722F4106222600B7805F8FE
:103FFC00013BDEE731465046D4F880319847002823
:10400C00DFD02368DB050DD5BD4209D915F8011C9D
:10401C0032465046D4F87C3105F1FF3998474D466D
:10402C00BD4227D0226812F0100212D12A703946F4
:10403C006368019E5046B047D8F8003021681A1DBD
:10404C00C8F800208E061B680FD51860E368013392
:10405C00E36000202369ED1B5D442B44236107B012
:10406C00BDE8F08F4FF0000BCBE7CA074CBF1880B0
:10407C001860EBE70120F2E76044000805430008F4
:10408C00E54300083053000870B50B7804465E2BEE
:10409C000BBF4B784A1C8A1C002108BF0121013838
:1040AC0004F1FF0500F8011FA842FBD10BB9501E0B
:1040BC0070BD81F001011046E154024612F8015B1B
:1040CC002D2D05D05D2D16D0002DF1D02B46F2E70D
:1040DC0046785D2EFAD0B342F8DC1A460230013233
:1040EC009642A154FBDCF21A013AB342A8BF00225B
:1040FC0001331344E1E71046DAE72DE9F0410C46B1
:10410C00496B04F1440399421BD14FF48061FFF7D2
:10411C000DFC18B94FF0FF30BDE8F0814FF480630F
:10412C00A36394F84630606380F8FF3394F845300D
:10413C0000F2FD30437094F844300370206000208E
:10414C00EAE7A66B77003A4600F02EF80546002801
:10415C00E0D000EB0608014632464046FFF76EFB06
:10416C00C4E90D57C4F80080E9E7000038B5002316
:10417C00054D044608462B60FEF7D8FA431C02D1C5
:10418C002B6803B1236038BDDC070020034610B553
:10419C00C9B202449342184601D1002003E00478CE
:1041AC0001338C42F6D110BD2DE9F041074614467F
:1041BC000D4621B91146BDE8F041FFF7B7BB2AB94E
:1041CC00FFF74AFB25462846BDE8F08100F006F9CA
:1041DC008442064602D8B4EB500FF4D82146384638
:1041EC00FFF7A4FB804608B94546ECE7B4422246EB
:1041FC00294628BF3246FFF721FB29463846FFF7F0
:10420C002BFBF1E7242B2DE9F0478646904601D88D
:10421C00012B06D1FFF7E6FA162303600020BDE858
:10422C00F0870D4633482A4615F8014B065D16F00B
:10423C000806F8D12D2C10D101262C78951C33F0C2
:10424C00100215D1302C0DD12A7802F0DF02582A39
:10425C0008D16C78023510230AE02B2C04BF2C7883
:10426C00951CECE7002BF6D1302C14BF0A23082345
:10427C00002206F1004C0CF1FF3CBCFBF3F910469C
:10428C0003FB19CAA4F13007092F0FD83C46A342EF
:10429C001BDD571C07D0814514D301D1A24511DB7E
:1042AC00012200FB034015F8014BEBE7A4F1410799
:1042BC00192F01D8373CEAE7A4F16107192F04D86C
:1042CC00573CE4E74FF0FF32EDE7531C08D12223B3
:1042DC006046CEF80030B8F1000FA0D0691E06E0A1
:1042EC0006B14042B8F1000F99D0002AF6D1C8F8B7
:1042FC00001094E73C530008FFF784BF2DE9F0430E
:10430C0086460D46334E284615F8014B375D17F09F
:10431C000807F8D12D2C10D101272C78851C33F0EF
:10432C00100015D1302C0DD1287800F0DF00582862
:10433C0008D16C78023510230AE02B2C04BF2C78A2
:10434C00851CECE7002BF6D1302C14BF0A23082374
:10435C004FF0FF38B8FBF3F8002603FB08F93046A2
:10436C006FEA0909A4F1300CBCF1090F10D86446AE
:10437C00A3421EDDB6F1FF3F07D0804516D301D115
:10438C00A14513DB012600FB034015F8014BE9E7BF
:10439C00A4F1410CBCF1190F01D8373CE8E7A4F1AA
:1043AC00610CBCF1190F04D8573CE1E74FF0FF3614
:1043BC00EBE7731C06D122233046CEF8003032B91D
:1043CC00BDE8F08307B14042002AF9D006B1691E5E
:1043DC001160F5E73C530008FFF790BF51F8043C1F
:1043EC00181F002BBCBF0B58C0187047F8B500BF86
:1043FC00F8BC08BC9E467047F8B500BFF8BC08BCBA
:04440C009E46704711
:104410003333333333331F40CDCCCCCCCCCC2440DE
:104420003333333333332F40CDCCCCCCCCCC3440AE
:104430000000000000403F409A99999999D9444062
:104440000000000000404F400000000000405F40BE
:104450000000000000406F400000000000407F406E
:104460003253000835530008385300084750533A78
:10447000206E6F2066697800475053204F4B210013
:10448000475053206E6F7420666F756E6421000074
:10449000537461727475702E2E2E0000000000009F
:1044A0004C6F5261204F4B21000000004C6F526155
:1044B000206E6F7420666F756E642C206368656370
:1044C0006B20776972696E6721000000536574750F
:1044D00070206973206E6F7420636F7272656374ED
:1044E0002E2E0000244750474741000024475047E4
:1044F00047412C25662C25662C25632C25662C250A
:10450000632C25642C25642C25662C25662C2563BC
:1045100000000000244750524D43000024475052F1
:104520004D432C25662C25662C25632C25662C25D1
:10453000632C25662C25662C2564000024475047F3
:104540004C4C0000244750474C4C2C25662C2563CE
:104550002C25662C25632C25662C25630000000085
:1045600024475056544700002447505654472C25A2
:10457000662C25632C25662C25632C25662C25634B
:104580002C25662C256300000102000002030405AF
:10459000060708090A0B0C0D0E0F10100000000092
:1045A00001020304000000000000000001020304F7
:1045B000060708090B120000C045000800000000B3
:1045C00000000000000000000000000000000000EB
:1045D00000000000000000000000000000000000DB
:1045E000000000000000000C000C000C000C000C8F
:1045F000000C000C000C000C000C000C0000000C67
:10460000000C0000000000000000001B001B001B4D
:10461000001B001B00000000000000000000000064
:1046200000000000000000000000000000008019F1
:10463000801980198019C07FC07F80190033C07F26
:10464000C07F00330033003300330000000000005F
:104650000000001E003F807580650074003C001E55
:1046600000078005806580658075003F001E00049E
:10467000000400000000007000D840D8C0D880D9E5
:1046800000730006000C801BC036C066C046C00622
:1046900080030000000000000000001E003F003307
:1046A00000330033001E000CC03CC0668063806194
:1046B0008063C03E801C0000000000000000000C71
:1046C000000C000C000C000C0000000000000000BA
:1046D00000000000000000000000000000000000DA
:1046E000800000010003000600060004000C000C1E
:1046F000000C000C000C000C000400060006000377
:1047000000018000002000100018000C000C0004C4
:104710000006000600060006000600060004000C65
:10472000000C0018001000200000000C002D003FBD
:10473000001E003300000000000000000000000028
:104740000000000000000000000000000000000069
:104750000000000C000C000C000CC0FFC0FF000C9F
:10476000000C000C000C0000000000000000000025
:104770000000000000000000000000000000000039
:1047800000000000000000000000000C000C00040D
:10479000000400080000000000000000000000000D
:1047A000000000000000001E001E000000000000CD
:1047B00000000000000000000000000000000000F9
:1047C00000000000000000000000000000000000E9
:1047D0000000000C000C00000000000000000003BE
:1047E000000300030006000600060006000C000C93
:1047F000000C000C00180018001800000000000059
:104800000000001E003F0033806180618061806D88
:10481000806D8061806180610033003F001E000078
:104820000000000000000006000E001E00360026FA
:104830000006000600060006000600060006000648
:1048400000060000000000000000001E003F807312
:1048500080618061800100030006000C00180030B8
:104860000060807F807F0000000000000000001CCE
:10487000003E006300630003000E000E0003800191
:10488000800180618073003F001E00000000000076
:1048900000000006000E000E001E001E001600366E
:1048A00000360066807F807F00060006000600005C
:1048B000000000000000007F007F006000600060DA
:1048C000006E007F80638001800180618073003F03
:1048D000001E0000000000000000001E003F8033AA
:1048E00080610060006E007F807380618061806104
:1048F0008033003F001E0000000000000000807FA9
:10490000807F80010003000300060006000C000CFD
:10491000000C00080018001800180000000000003B
:104920000000001E003F8063806180610021001E46
:10493000003F8061806180618061003F001E000057
:10494000000000000000001E003F007380618061D5
:1049500080618073803F801D800180610073003F13
:10496000001E000000000000000000000000000029
:104970000000000C000C000000000000000000001F
:104980000000000C000C000000000000000000000F
:104990000000000000000000000C000C00000000FF
:1049A000000000000000000C000C000400040008DF
:1049B000000000000000000080008003000E0038AE
:1049C00000600038000E800380000000000000003E
:1049D0000000000000000000000000000000807FD8
:1049E000807F00000000807F807F000000000000CA
:1049F00000000000000000000000000000000000B7
:104A000000400070001C000780010007001C0070BF
:104A10000040000000000000000000000000001F37
:104A2000803FC071C060C000C00180030007000E5D
:104A3000000C000C0000000C000C00000000000046
:104A40000000001E003F803180718063806F806DA8
:104A5000806D806F806700600032003E001C0000A7
:104A6000000000000000000E000E001B001B001BD9
:104A7000001B80318031803F803F8031C060C0604A
:104A8000C0600000000000000000007C007E0063A9
:104A9000006300630063007E007E006380618061CC
:104AA0008063007F007E0000000000000000001E08
:104AB000003F803180610060006000600060006045
:104AC000006080618031003F001E00000000000097
:104AD0000000007C007F00638063806180618061F2
:104AE00080618061806100630063007E007C000063
:104AF000000000000000807F807F00600060006098
:104B00000060007F007F0060006000600060807FC8
:104B1000807F0000000000000000807F807F006038
:104B2000006000600060007F007F00600060006047
:104B30000060006000600000000000000000001E37
:104B4000003F8031806100600060006080638063AE
:104B5000806180618031803F001E00000000000005
:104B60000000806180618061806180618061807F00
:104B7000807F8061806180618061806180610000F0
:104B8000000000000000003F003F000C000C000C83
:104B9000000C000C000C000C000C000C000C003F82
:104BA000003F000000000000000080018001800143
:104BB000800180018001800180018001806180612D
:104BC0008073003F001E0000000000000000C06075
:104BD0008061006300660066006C0078007C0066FF
:104BE0000066006380618061C0600000000000001A
:104BF0000000006000600060006000600060006015
:104C000000600060006000600060807F807F0000C6
:104C1000000000000000C071C071C07BC07AC06A93
:104C2000C06AC06EC064C060C060C060C060C06068
:104C3000C060000000000000000080718071807979
:104C400080798079806D806D806D806580678067F8
:104C50008067806380630000000000000000001E89
:104C6000003F00338061806180618061806180618C
:104C7000806180610033003F001E000000000000E2
:104C80000000007E007F80638061806180618063BE
:104C9000007F007E00600060006000600060000037
:104CA000000000000000001E003F003380618061B2
:104CB0008061806180618061806580670033803FB2
:104CC000401E0000000000000000007E007F8063A6
:104CD000806180618063007F007E00660063006306
:104CE00080618061C0600000000000000000000ED4
:104CF000001F8031803100300038001E0007800323
:104D0000806180618031003F001E000000000000D3
:104D10000000C0FFC0FF000C000C000C000C000CD9
:104D2000000C000C000C000C000C000C000C00002F
:104D3000000000000000806180618061806180610E
:104D40008061806180618061806180618073003FEB
:104D5000001E0000000000000000C060C060C060D5
:104D6000803180318031001B001B001B001B000EB6
:104D7000000E000E00040000000000000000C0C093
:104D8000C0C0C0C0C0C0C0C0C0CC804C804C805E21
:104D900080528052807380618061000000000000BA
:104DA0000000C0C0806080610033003B001E000C2A
:104DB000000C001E001F003B80718061C0C000001D
:104DC000000000000000C0C080618061003300333B
:104DD000001E001E000C000C000C000C000C000C4F
:104DE000000C0000000000000000803F803F8001B8
:104DF000000300030006000C000C0018001800302F
:104E00000060807F807F000000000000000F000F26
:104E1000000C000C000C000C000C000C000C000C32
:104E2000000C000C000C000C000C000C000F000F1C
:104E30000000001800180018000C000C000C000CFA
:104E40000006000600060006000300030003000041
:104E500000000000001E001E0006000600060006FE
:104E60000006000600060006000600060006000612
:104E700000060006001E001E0000000C000C001EB4
:104E800000120033003380618061000000000000E8
:104E90000000000000000000000000000000000012
:104EA0000000000000000000000000000000000002
:104EB000000000000000000000000000E0FF000013
:104EC000000000380018000C000000000000000086
:104ED00000000000000000000000000000000000D2
:104EE0000000000000000000000000000000001FA3
:104EF000803F80618001801F803F80618063807F70
:104F0000C038000000000000000000600060006089
:104F10000060006E007F80738061806180618061CD
:104F20008073007F006E00000000000000000000A1
:104F3000000000000000001E003F807380610060E0
:104F4000006080618073003F001E000000000000D0
:104F500000008001800180018001801D803F8073FE
:104F600080618061806180618073803F801D00006E
:104F70000000000000000000000000000000001E13
:104F8000003F00738061807F807F00608071003F00
:104F9000001E0000000000000000C007C00F000C51
:104FA000000C807F807F000C000C000C000C000CBB
:104FB000000C000C000C00000000000000000000CD
:104FC00000000000801D803F8073806180618061EF
:104FD00080618073803F801D80018063007F003E80
:104FE00000000060006000600060006F807F8071E2
:104FF000806180618061806180618061806100008A
:105000000000000000000006000600000000003E56
:10501000003E000600060006000600060006000628
:10502000000600000000000000060006000000006E
:10503000003E003E000600060006000600060006D0
:105040000006000600060046007E003C00000060EE
:10505000006000600060806100630066006C007C9E
:105060000076006300638061C06000000000000003
:105070000000003E003E0006000600060006000696
:1050800000060006000600060006000600060000F6
:10509000000000000000000000000000000080DDB3
:1050A000C0FFC0CEC0CCC0CCC0CCC0CCC0CCC0CC6B
:1050B000C0CC000000000000000000000000000064
:1050C0000000006F807F80718061806180618061FD
:1050D000806180618061000000000000000000002D
:1050E000000000000000001E003F807380618061AE
:1050F000806180618073003F001E0000000000009E
:105100000000000000000000006E007F80738061DE
:105110008061806180618073007F006E006000604C
:10512000006000600000000000000000801D803F63
:10513000807380618061806180618073803F801DA9
:10514000800180018001800100000000000000005B
:1051500000000067803F0039003000300030003030
:1051600000300030003000000000000000000000AF
:10517000000000000000001E803F80610060007F92
:10518000803F80018061007F001E00000000000061
:1051900000000000000800180018007F007F0018C1
:1051A00000180018001800180018801F800F000059
:1051B000000000000000000000000000000080610E
:1051C0008061806180618061806180618063807FB7
:1051D000803D000000000000000000000000000012
:1051E0000000C060803180318031001B001B001B3B
:1051F000000E000E0006000000000000000000008D
:1052000000000000000080DD80DD80DD00550055DD
:105210000055007700770022002200000000000007
:105220000000000000000000000080610033003337
:10523000001E000C000C001E0033003380610000D3
:10524000000000000000000000000000806180619C
:10525000803100330033001B001B001B000E000ECA
:10526000000E001C007C0070000000000000000028
:105270000000C07FC07F800100030006000C001802
:105280000030C07FC07F0000000000008003800766
:1052900000060006000600060006000E001C001CAA
:1052A000000E0006000600060006000680078003C8
:1052B00000060006000600060006000600060006BE
:1052C00000060006000600060006000600060006AE
:1052D000000600060038003C000C000C000C000C1E
:1052E000000C000E00070007000E000C000C000C64
:1052F000000C000C003C0038000000000000000022
:105300000000000000008038807F0047000000009F
:10531000000000000000000000000000686C4C006D
:10532000412D46612D6638393031323334353637C8
:105330005D002B2D00303000785800002020202008
:105340002020202020282828282820202020202035
:105350002020202020202020202020208810101015
:10536000101010101010101010101010040404046D
:1053700004040404040410101010101010414141E2
:10538000414141010101010101010101010101014D
:1053900001010101010101101010101010424242E0
:1053A000424242020202020202020202020202021D
:1053B000020202020202021010101020000000007F
:1053C00000000000000000000000000000000000DD
:1053D00000000000000000000000000000000000CD
:1053E00000000000000000000000000000000000BD
:1053F00000000000000000000000000000000000AD
:10540000000000000000000000000000000000009C
:10541000000000000000000000000000000000008C
:10542000000000000000000000000000000000007C
:0C54300000000000000000000000000070
:08543C00D0ACFF7F010000006D
:04544400350E000819
:04544800110E000839
:10544C00010000001000000000127A001000002083
:10545C0000000000A40600200C07002074070020A8
:10546C000000000000000000000000000000000030
:10547C000000000000000000000000000000000020
:10548C000000000000000000000000000000000010
:0C549C0000000000000000000000000004
:0400000508003715A3
:00000001FF
