:020000040800F2
:1000000000500020A9410008091700080B1700083C
:100010000D1700080F170008111700080000000056
:10002000000000000000000000000000131700089E
:10003000151700080000000017170008191700081E
:10004000F1410008F1410008F1410008F1410008C8
:10005000F1410008F1410008F141000821170008B2
:100060002B170008F1410008F1410008F141000898
:10007000F1410008F1410008F1410008F141000898
:10008000F1410008F1410008F1410008F141000888
:10009000F1410008F1410008F1410008F141000878
:1000A000F1410008F1410008F1410008F141000868
:1000B000F1410008F1410008F1410008F141000858
:1000C000F1410008F1410008F1410008F141000848
:1000D000F1410008F1410008F1410008F141000838
:1000E00035170008F1410008F14100080000000048
:1000F0000000000000000000000000000000000000
:0C01000000000000000000005FF808F1A3
:10010C00034613F8012B002AFBD1181A013870474B
:10011C0081F0004102E000BF83F0004330B54FEAAC
:10012C0041044FEA430594EA050F08BF90EA020F19
:10013C001FBF54EA000C55EA020C7FEA645C7FEAAC
:10014C00655C00F0E2804FEA5454D4EB5555B8BFCF
:10015C006D420CDD2C4480EA020281EA030382EA40
:10016C00000083EA010180EA020281EA0303362DD2
:10017C0088BF30BD11F0004F4FEA01314FF4801CA5
:10018C004CEA113102D0404261EB410113F0004FB7
:10019C004FEA03334CEA133302D0524263EB43036E
:1001AC0094EA050F00F0A780A4F10104D5F1200E0C
:1001BC000DDB02FA0EFC22FA05F2801841F1000167
:1001CC0003FA0EF2801843FA05F359410EE0A5F13B
:1001DC0020050EF1200E012A03FA0EFC28BF4CF06C
:1001EC00020C43FA05F3C01851EBE37101F0004522
:1001FC0007D54FF0000EDCF1000C7EEB00006EEB2F
:10020C000101B1F5801F1BD3B1F5001F0CD34908B8
:10021C005FEA30004FEA3C0C04F101044FEA44520F
:10022C0012F5800F80F09A80BCF1004F08BF5FEA96
:10023C00500C50F1000041EB045141EA050130BD76
:10024C005FEA4C0C404141EB0101013C28BFB1F588
:10025C00801FE9D291F0000F04BF01460020B1FAD3
:10026C0081F308BF2033A3F10B03B3F120020CDAA6
:10027C000C3208DD02F1140CC2F10C0201FA0CF084
:10028C0021FA02F10CE002F11402D8BFC2F1200CE9
:10029C0001FA02F120FA0CFCDCBF41EA0C0190409F
:1002AC00E41AA2BF01EB0451294330BD6FEA0404E8
:1002BC001F3C1CDA0C340EDC04F11404C4F12002D3
:1002CC0020FA04F001FA02F340EA030021FA04F3E5
:1002DC0045EA030130BDC4F10C04C4F1200220FA3C
:1002EC0002F001FA04F340EA0300294630BD21FA7A
:1002FC0004F0294630BD94F0000F83F4801306BF40
:10030C0081F480110134013D4EE77FEA645C18BF33
:10031C007FEA655C29D094EA050F08BF90EA020FCA
:10032C0005D054EA000C04BF1946104630BD91EAC2
:10033C00030F1EBF0021002030BD5FEA545C05D1C5
:10034C004000494128BF41F0004130BD14F5800404
:10035C003CBF01F5801130BD01F0004545F0FE4178
:10036C0041F470014FF0000030BD7FEA645C1ABFAD
:10037C00194610467FEA655C1CBF0B46024650EAE4
:10038C00013406BF52EA033591EA030F41F4002110
:10039C0030BD00BF90F0000F04BF0021704730B596
:1003AC004FF4806404F132044FF000054FF000016B
:1003BC0050E700BF90F0000F04BF0021704730B52C
:1003CC004FF4806404F1320410F0004548BF404201
:1003DC004FF000013EE700BF42004FEAE2014FEA56
:1003EC0031014FEA02701FBF12F07F4393F07F4F31
:1003FC0081F06051704732F07F4208BF704793F034
:10040C007F4F04BF41F40021704730B54FF4607446
:10041C0001F0004521F000411CE700BF50EA010249
:10042C0008BF704730B54FF000050AE050EA0102F2
:10043C0008BF704730B511F0004502D5404261EB62
:10044C0041014FF4806404F132045FEA915C3FF4A3
:10045C00D8AE4FF003025FEADC0C18BF03325FEA40
:10046C00DC0C18BF033202EBDC02C2F1200300FAF1
:10047C0003FC20FA02F001FA03FE40EA0E0021FA16
:10048C0002F11444BDE600BF70B54FF0FF0C4CF404
:10049C00E06C1CEA11541DBF1CEA135594EA0C0FB6
:1004AC0095EA0C0F00F0DEF82C4481EA030621EAF1
:1004BC004C5123EA4C5350EA013518BF52EA03352C
:1004CC0041F4801143F4801338D0A0FB02CE4FF0DE
:1004DC000005E1FB02E506F00042E0FB03E54FF00E
:1004EC000006E1FB03569CF0000F18BF4EF0010E06
:1004FC00A4F1FF04B6F5007F64F5407404D25FEA02
:10050C004E0E6D4146EB060642EAC62141EA5551B4
:10051C004FEAC52040EA5E504FEACE2EB4F1FD0CF6
:10052C0088BFBCF5E06F1ED8BEF1004F08BF5FEA74
:10053C00500E50F1000041EB045170BD06F0004626
:10054C0046EA010140EA020081EA0301B4EB5C04D3
:10055C00C2BFD4EB0C0541EA045170BD41F48011CB
:10056C004FF0000E013C00F3AB8014F1360FDEBFF0
:10057C00002001F0004170BDC4F10004203C35DACC
:10058C000C341BDC04F11404C4F1200500FA05F34F
:10059C0020FA04F001FA05F240EA020001F00042F0
:1005AC0021F0004110EBD37021FA04F642EB060166
:1005BC005EEA430E08BF20EAD37070BDC4F10C0490
:1005CC00C4F1200500FA04F320FA05F001FA04F254
:1005DC0040EA020001F0004110EBD37041F1000140
:1005EC005EEA430E08BF20EAD37070BDC4F120054B
:1005FC0000FA05F24EEA020E20FA04F301FA05F2B3
:10060C0043EA020321FA04F001F0004121FA04F25A
:10061C0020EA020000EBD3705EEA430E08BF20EA2A
:10062C00D37070BD94F0000F0FD101F00046400064
:10063C0041EB010111F4801F08BF013CF7D041EAE6
:10064C00060195F0000F18BF704703F000465200EA
:10065C0043EB030313F4801F08BF013DF7D043EABB
:10066C000603704794EA0C0F0CEA135518BF95EA71
:10067C000C0F0CD050EA410618BF52EA4306D1D1F8
:10068C0081EA030101F000414FF0000070BD50EA17
:10069C00410606BF1046194652EA430619D094EAA1
:1006AC000C0F02D150EA013613D195EA0C0F05D18B
:1006BC0052EA03361CBF104619460AD181EA0301DF
:1006CC0001F0004141F0FE4141F470014FF0000097
:1006DC0070BD41F0FE4141F4780170BD70B54FF032
:1006EC00FF0C4CF4E06C1CEA11541DBF1CEA1355B2
:1006FC0094EA0C0F95EA0C0F00F0A7F8A4EB050494
:10070C0081EA030E52EA03354FEA013100F088808A
:10071C004FEA03334FF0805545EA131343EA126353
:10072C004FEA022245EA111545EA10654FEA002608
:10073C000EF000419D4208BF964244F1FD0404F5C1
:10074C00407402D25B084FEA3202B61A65EB03051D
:10075C005B084FEA32024FF480104FF4002CB6EBDA
:10076C00020E75EB030E22BFB61A754640EA0C005A
:10077C005B084FEA3202B6EB020E75EB030E22BF9A
:10078C00B61A754640EA5C005B084FEA3202B6EBDB
:10079C00020E75EB030E22BFB61A754640EA9C009A
:1007AC005B084FEA3202B6EB020E75EB030E22BF6A
:1007BC00B61A754640EADC0055EA060E18D04FEA28
:1007CC00051545EA16754FEA06164FEAC30343EAC8
:1007DC0052734FEAC2025FEA1C1CC0D111F4801F95
:1007EC000BD141EA00014FF000004FF0004CB6E78E
:1007FC0011F4801F04BF01430020B4F1FD0C88BF2D
:10080C00BCF5E06F3FF6AFAEB5EB030C04BFB6EB37
:10081C00020C5FEA500C50F1000041EB045170BD2A
:10082C000EF0004E4EEA113114EB5C04C2BFD4EB57
:10083C000C0541EA045170BD41F480114FF0000EDB
:10084C00013C90E645EA060E8DE60CEA135594EA57
:10085C000C0F08BF95EA0C0F3FF43BAF94EA0C0F5A
:10086C000AD150EA01347FF434AF95EA0C0F7FF4CF
:10087C0025AF104619462CE795EA0C0F06D152EA23
:10088C0003353FF4FDAE1046194622E750EA410607
:10089C0018BF52EA43067FF4C5AE50EA41047FF418
:1008AC000DAF52EA43057FF4EBAE12E74FEA41027B
:1008BC0012F5001215D211D56FF47873B3EB6252A6
:1008CC0012D94FEAC12343F0004343EA505311F0CD
:1008DC00004F23FA02F018BF404270474FF000005F
:1008EC00704750EA013005D111F0004008BF6FF09D
:1008FC00004070474FF00000704700BF80F0004090
:10090C0002E000BF81F0004142001FBF5FEA4103DB
:10091C0092EA030F7FEA226C7FEA236C6AD04FEADB
:10092C001262D2EB1363C1BFD21841404840414020
:10093C00B8BF5B42192B88BF704710F0004F40F4D2
:10094C00000020F07F4018BF404211F0004F41F4EE
:10095C00000121F07F4118BF494292EA030F3FD0BA
:10096C00A2F1010241FA03FC10EB0C00C3F12003CD
:10097C0001FA03F100F0004302D5494260EB40005C
:10098C00B0F5000F13D3B0F1807F06D340084FEAC7
:10099C00310102F10102FE2A51D2B1F1004F40EBBC
:1009AC00C25008BF20F0010040EA03007047490024
:1009BC0040EB0000013A28BFB0F5000FEDD2B0FAC1
:1009CC0080FCACF1080CB2EB0C0200FA0CF0AABFE4
:1009DC0000EBC25052421843BCBFD0401843704782
:1009EC0092F0000F81F4000106BF80F40000013288
:1009FC00013BB5E74FEA41037FEA226C18BF7FEA5F
:100A0C00236C21D092EA030F04D092F0000F08BFA0
:100A1C000846704790EA010F1CBF0020704712F087
:100A2C007F4F04D1400028BF40F00040704712F1C6
:100A3C0000723CBF00F50000704700F0004343F02B
:100A4C00FE4040F4000070477FEA226216BF084661
:100A5C007FEA23630146420206BF5FEA412390EA24
:100A6C00010F40F4800070474FF0000304E000BF1A
:100A7C0010F0004348BF40425FEA000C08BF7047CB
:100A8C0043F0964301464FF000001CE050EA01028F
:100A9C0008BF70474FF000030AE000BF50EA0102A4
:100AAC0008BF704711F0004302D5404261EB410191
:100ABC005FEA010C02BF84460146002043F0B643B6
:100ACC0008BFA3F18053A3F50003BCFA8CF2083ADB
:100ADC00A3EBC25310DB01FA02FC634400FA02FCE4
:100AEC00C2F12002BCF1004F20FA02F243EB0200EB
:100AFC0008BF20F00100704702F1200201FA02FC4D
:100B0C00C2F1200250EA4C0021FA02F243EB02003F
:100B1C0008BF20EADC7070474FF0FF0C1CEAD05283
:100B2C001EBF1CEAD15392EA0C0F93EA0C0F6FD044
:100B3C001A4480EA010C400218BF5FEA41211ED022
:100B4C004FF0006343EA501043EA5111A0FB01310E
:100B5C000CF00040B1F5000F3EBF490041EAD371E3
:100B6C005B0040EA010062F17F02FD2A1DD8B3F15F
:100B7C00004F40EBC25008BF20F00100704790F0CE
:100B8C00000F0CF0004C08BF49024CEA502040EA20
:100B9C0051207F3AC2BFD2F1FF0340EAC2507047E6
:100BAC0040F400004FF00003013A5DDC12F1190F24
:100BBC00DCBF00F000407047C2F10002410021FA96
:100BCC0002F1C2F1200200FA02FC5FEA310040F1AE
:100BDC00000053EA4C0308BF20EADC70704792F027
:100BEC00000F00F0004C02BF400010F4000F013A5F
:100BFC00F9D040EA0C0093F0000F01F0004C02BF5A
:100C0C00490011F4000F013BF9D041EA0C018FE7C8
:100C1C000CEAD15392EA0C0F18BF93EA0C0F0AD0CE
:100C2C0030F0004C18BF31F0004CD8D180EA0100F4
:100C3C0000F00040704790F0000F17BF90F0004F8D
:100C4C00084691F0000F91F0004F14D092EA0C0F6F
:100C5C0001D142020FD193EA0C0F03D14B0218BF02
:100C6C00084608D180EA010000F0004040F0FE4048
:100C7C0040F40000704740F0FE4040F440007047E4
:100C8C004FF0FF0C1CEAD0521EBF1CEAD15392EA63
:100C9C000C0F93EA0C0F69D0A2EB030280EA010C53
:100CAC0049024FEA402037D04FF0805343EA1111EC
:100CBC0043EA10130CF000408B4238BF5B0042F14A
:100CCC007D024FF4000C8B4224BF5B1A40EA0C00EF
:100CDC00B3EB510F24BFA3EB510340EA5C00B3EB21
:100CEC00910F24BFA3EB910340EA9C00B3EBD10F0F
:100CFC0024BFA3EBD10340EADC001B0118BF5FEA61
:100D0C001C1CE0D1FD2A3FF650AF8B4240EBC25089
:100D1C0008BF20F0010070470CF0004C4CEA50204A
:100D2C007F32C2BFD2F1FF0340EAC250704740F499
:100D3C0000004FF00003013A37E792F0000F00F08B
:100D4C00004C02BF400010F4000F013AF9D040EA09
:100D5C000C0093F0000F01F0004C02BF490011F49D
:100D6C00000F013BF9D041EA0C0195E70CEAD15395
:100D7C0092EA0C0F08D142027FF47DAF93EA0C0F7C
:100D8C007FF470AF084676E793EA0C0F04D14B0260
:100D9C003FF44CAF08466EE730F0004C18BF31F012
:100DAC00004CCAD130F000427FF45CAF31F000430C
:100DBC007FF43CAF5FE700BF4FEA4002B2F1FE4F59
:100DCC000FD34FF09E03B3EB12620DD94FEA002301
:100DDC0043F0004310F0004F23FA02F018BF4042DA
:100DEC0070474FF00000704712F1610F01D14202C1
:100DFC0005D110F0004008BF6FF0004070474FF075
:100E0C000000704710B5054C237833B9044B13B16F
:100E1C000448AFF300800123237010BD5C00002058
:100E2C0000000000DC54000808B5034B1BB103495B
:100E3C000348AFF3008008BD0000000060000020F4
:100E4C00DC54000810B582B004461021002002F0DA
:100E5C0061FEE3697BB1002B02DD236A022B12DCFD
:100E6C000D4B012200920ECB0C4802F03BFE02F01F
:100E7C0097FD02B010BD084B012200920ECB084822
:100E8C0002F030FEF3E7044B012200920ECB054832
:100E9C0002F028FEEBE700BFA057000868550008D9
:100EAC00545500086055000870B582B0002002F05F
:100EBC0069FD0124009440231A460021084602F0E3
:100ECC00CDFE2C21502002F025FE314D009495E8EA
:100EDC000E00304802F006FE00940A237022162100
:100EEC00542002F01DFE2C210E2002F013FE0026D1
:100EFC00009695E80E00284802F0F4FD00940C23AF
:100F0C004A220A21722002F00BFE00942023622256
:100F1C000A21722002F004FE00942223642216217E
:100F2C00542002F0FDFD00940C234A22162154207B
:100F3C0002F0F6FD0094202354221421502002F0DC
:100F4C00EFFD00941C235E222221542002F0E8FDC8
:100F5C003346082216211E2002F029FE33460E22AB
:100F6C0016211E2002F023FE224616211E2002F01E
:100F7C0033FD3346022216211E2002F018FE02F029
:100F8C000FFD4FF4FA7001F02FF802B070BD00BFE6
:100F9C00AC570008785500088055000870B582B031
:100FAC00002002F0EFFC0125009540238022002157
:100FBC00184602F053FE2C21502002F0ABFD314EAE
:100FCC000024009496E80E002F4802F08BFD00944C
:100FDC000A2370221621542002F0A2FD2C210E208F
:100FEC0002F098FD009596E80E00284802F07AFD74
:100FFC0000940C234A220A21722002F091FD0094E5
:10100C00202362220A21722002F08AFD00942223FE
:10101C0064221621542002F083FD00940C234A22F2
:10102C001621542002F07CFD00942023542214211C
:10103C00502002F075FD00941C235E2222215420C6
:10104C0002F06EFD2B46082216211E2002F0AFFD89
:10105C002B460E2216211E2002F0A9FD2A4616212F
:10106C001E2002F0B9FC2B46022216211E2002F093
:10107C009EFD02F095FC4FF4FA7000F0B5FF02B043
:10108C0070BD00BFAC5700087855000880550008AB
:10109C0030B583B0002002F075FC2C21502002F0FA
:1010AC0039FD2F4D0124009495E80E002D4802F0D7
:1010BC0019FD2C210E2002F02DFD009495E80E0058
:1010CC00294802F00FFD00940A23702216215420A7
:1010DC0002F026FD00940C234A220A21722002F011
:1010EC001FFD0094202362220A21722002F018FDB9
:1010FC000094222364221621542002F011FD009446
:10110C000C234A221621542002F00AFD00942023BD
:10111C0054221421502002F003FD00941C235E2263
:10112C002221542002F0FCFC2346082216211E200A
:10113C0002F03DFD23460E2216211E2002F037FD43
:10114C00224616211E2002F047FC234602221621BD
:10115C001E2002F02CFD02F023FC03B030BD00BFBA
:10116C00AC5700087855000880550008042802D0B8
:10117C00022804D07047044B01221A707047034BAD
:10118C0001221A70F6E700BF7900002078000020D9
:10119C0072B6FEE710B590B006AC282200212046AE
:1011AC0003F072F8002301930293039304930593C5
:1011BC00012206924FF4803307930A9202220D9279
:1011CC000E934FF4E0130F93204600F037FF78B9DD
:1011DC000F23019302210291002303934FF48062A9
:1011EC000492059301A801F05BF918B910B010BD79
:1011FC00FFF7CEFFFFF7CCFF10B5A8B000F0D0FE84
:10120C00FFF7C8FF00F002F900F0FEF900F084F9D6
:10121C0001F05AFD00F0DEF902F064FD002002F04E
:10122C00B1FB1021084602F075FC6B4B01220092B9
:10123C000ECB6A4802F056FC02F0B2FB4FF4FA7087
:10124C0000F0D2FE002002F09DFB02F095FEC828B3
:10125C0017D0B0F5CA7F26D040F2F712904230D0AA
:10126C0002F0A4FD08A802F0D5FD5D48FFF7EAFDE9
:10127C004FF4FA7000F0B8FE02F052FFFFF708FFCF
:10128C004AE01021084602F045FC534B0122009223
:10129C000ECB544802F026FC02F082FB4FF4FA709D
:1012AC0000F0A2FEDCE74C4B012200920ECB4E4824
:1012BC0002F018FC02F074FB4FF4FA7000F094FE8C
:1012CC00CEE7454B012200920ECB484802F00AFCB7
:1012DC0002F066FB02F064FB4FF4FA7000F084FE3F
:1012EC00BEE70024424B1C70FFF7DEFD02F01EFF30
:1012FC00204602F047FB1021084602F00BFC364B4F
:10130C00012200920ECB3B4802F0ECFB02F048FBB2
:10131C000AE002F0EFFE50BB02F074FE02F018FF80
:10132C00334B1B78002BDCD1334B1B78002BF0D0CC
:10133C000024314B1C70FFF731FE022002F094FEAA
:10134C00204602F01FFB1021084602F0E3FB224B63
:10135C00012200920ECB294802F0C4FB02F020FBC4
:10136C004FF4FA7000F040FEFFF792FED1E70DF15A
:10137C000F0002F0C5FE0446002002F003FB102112
:10138C00084602F0C7FB012C16D0022C1CD0002101
:10139C00102002F0BFFB04AC9DF80F20184920462A
:1013AC0002F022FF0C4B012200920ECB204602F0E1
:1013BC0099FB02F0F5FAAFE7074B012200920ECB36
:1013CC00104802F08FFBE2E7034B012200920ECB98
:1013DC000D4802F087FBDAE7A05700088855000893
:1013EC007C00002094550008A0550008C05500084A
:1013FC0079000020D855000878000020E45500083A
:10140C0000560008F0550008F85500082DE9F04189
:10141C0088B004AD00240494059406940794384BCA
:10142C009A6942F010029A619A6902F010020092D5
:10143C00009A9A6942F020029A619A6902F020029D
:10144C000192019A9A6942F004029A619A6902F037
:10145C0004020292029A9A6942F008029A619B690C
:10146C0003F008030393039B264F01224FF488716A
:10147C00384601F0FBF94FF400530493DFF88880F1
:10148C00CDF8148006942946204801F0E5F8012691
:10149C000496CDF8148006942946384601F0DCF801
:1014AC004FF48873049305960694022307932946F8
:1014BC00384601F0D1F806230493154B0593069694
:1014CC002946144801F0C8F822463146072001F09D
:1014DC0027FA072001F034FA22463146082001F0A1
:1014EC001FFA082001F02CFA22462146282001F090
:1014FC0017FA282001F024FA08B0BDE8F08100BFEB
:10150C0000100240000801400000111000100140C2
:10151C0000002110000C014008B50E480E4B036072
:10152C004FF48273436000238360C36003614361A3
:10153C004FF4007282611822C261036243628362BB
:10154C000A23C36200F0D8F900B908BDFFF720FEEA
:10155C00FBE700BFD40000200030014030B587B05D
:10156C00002302930393049305930268174B9A424A
:10157C0001D007B030BD03F560439A6942F4805244
:10158C009A619A6902F480520092009A9A6942F028
:10159C0004029A619B6903F004030193019BA0234D
:1015AC000293022303930323059302AD084C2946AF
:1015BC00204601F051F84023029300230393049337
:1015CC002946204601F048F8D3E700BF003001401F
:1015DC000008014008B50A480A4B03604FF4165343
:1015EC00436000238360C360036104224261836112
:1015FC00C36101F082FA00B908BDFFF7C9FDFBE732
:10160C00740100200038014008B50A480A4B0360F9
:10161C004FF4E133436000238360C36003610C2209
:10162C0042618361C36101F068FA00B908BDFFF73C
:10163C00AFFDFBE72C0100200044004030B589B021
:10164C00002304930593069307930368274A934258
:10165C0004D0274A93422CD009B030BD254B9A694F
:10166C0042F480429A619A6902F480420092009A94
:10167C009A6942F004029A619B6903F00403019396
:10168C00019B4FF4007304930223059303230793E8
:10169C0004AD194C2946204600F0DEFF4FF4806360
:1016AC0004930023059306932946204600F0D4FFAB
:1016BC00D2E7104BDA6942F40032DA61DA6902F4EB
:1016CC0000320292029A9A6942F004029A619B6972
:1016DC0003F004030393039B0C230493022305934D
:1016EC00079304A9044800F0B7FFB5E700380140A0
:1016FC00004400400010024000080140FEE7FEE7F5
:10170C00FEE7FEE7FEE770477047704708B500F04C
:10171C0059FC08BD08B5022001F0AEF808BD08B5AB
:10172C00042001F0A9F808BD08B54FF4005001F0F1
:10173C00A3F808BD82B00E4B9A6942F001029A617F
:10174C009A6902F001020092009ADA6942F0805222
:10175C00DA61DB6903F080530193019B054A5368FE
:10176C0023F0E06343F00073536002B0704700BF96
:10177C0000100240000001402DE9F04782B0054600
:10178C00884617461E4600F029FC0A9B1B1A03EBE1
:10179C00060900F023FC8246284B1B68C3F3CB33AD
:1017AC0009FB03F301932B689C6838EA04040CBF13
:1017BC0001230023BB423DD0B6F1FF3FF3D000F034
:1017CC000DFCA0EB0A00484507D2019A02B14A462B
:1017DC00019B013B01939146E5E72A68536823F08E
:1017EC00E00353606B68B3F5827F0BD0AB6AB3F543
:1017FC00005F14D0012385F85130002385F8503058
:10180C00032018E0AB68B3F5004F02D0B3F5806F3E
:10181C00ECD12A68136823F040031360E6E72A68CA
:10182C00136823F4005313602A68136843F40053BD
:10183C001360DFE7002002B0BDE8F087080000204D
:10184C0070B582B006460C46154600920B46012236
:10185C000221FFF791FF48B9009523460022802111
:10186C003046FFF789FF38B902B070BD736D43F095
:10187C00200373650320F7E7736D43F02003736552
:10188C000320F1E710B582B004460B464168B1F570
:10189C00827F10D06168B1F5827F03D1A168B1F568
:1018AC00806F15D00092002280212046FFF764FF44
:1018BC00E0B902B010BD8168B1F5004F02D0B1F5AE
:1018CC00806FE7D12068016821F040010160E1E7F9
:1018DC000092002201212046FFF74EFF0028E8D09D
:1018EC00636D43F0200363650320E2E7636D43F00F
:1018FC00200363650320DCE7002856D010B50446AE
:10190C00436A33B94368B3F5827F05D00023C361C2
:10191C0002E00023036143610023A36294F8513079
:10192C00002B3CD0022384F851302268136823F03A
:10193C0040031360636803F48273A26802F40442E8
:10194C001343E26802F400621343226902F00202BC
:10195C001343626902F001021343A26902F400729C
:10196C001343E26902F038021343226A02F0800248
:10197C001343A26A02F40052216813430B60638B79
:10198C00226803F0040353602268D36923F40063D4
:10199C00D36100206065012384F8513010BD84F8B8
:1019AC0050302046FFF7DAFDBCE7012070472DE9E7
:1019BC00F04383B00446894690461D4600F00EFB6A
:1019CC0094F85130012B40F0CD800646DFB2B9F1CE
:1019DC00000F00F0C880B8F1000F00F0C48094F83C
:1019EC005030012B00F0C380012384F850300323C6
:1019FC0084F8513000236365C4F83090A4F8348027
:101A0C00A4F83680A363A387E38763642364A36885
:101A1C00B3F5004F1ED023681A6812F0400F03D1A3
:101A2C001A6842F040021A60E368B3F5006F1CD0EC
:101A3C00636813B1B8F1010F5FD1226B2368127880
:101A4C001A73236B01332363E38E9BB2013B9BB26E
:101A5C00E38652E02268136823F040031360226887
:101A6C00136843F480431360D5E7636813B1B8F18E
:101A7C00010F15D1226B23681288DA60236B0233B5
:101A8C002363E38E9BB2013B9BB2E38608E000F03C
:101A9C00A5FA801BA84202D3B5F1FF3F15D1A5B121
:101AAC00E38E9BB2002B42D023689A6812F0020F8F
:101ABC00EDD0226B1288DA60236B02332363E38E42
:101ACC009BB2013B9BB2E386EAE7012384F85130D9
:101ADC00002384F85030032745E0226B12781A73E8
:101AEC00236B01332363B4F836C01FFA8CFC0CF162
:101AFC00FF3C1FFA8CFCA4F836C0E38E9BB2B3B14A
:101B0C0023689A6812F0020FE7D100F067FA801B85
:101B1C00A84202D3B5F1FF3F01D1002DEDD1012335
:101B2C0084F85130002384F8503003271BE03246F0
:101B3C0029462046FFF784FE08B120236365A3687D
:101B4C0033B901932368DA6801929B680193019B76
:101B5C00012384F85130002384F85030636D13B99D
:101B6C00002700E00227384603B0BDE8F0830227C7
:101B7C00F9E72DE9F04383B00446884691461F46A9
:101B8C000A9D00F02BFA064694F851306268012B3E
:101B9C000BD0D9B2B2F5827F40F00481A368002B40
:101BAC0040F00481042940F00381B8F1000F00F0EB
:101BBC000181B9F1000F00F0FF80002F00F0FE80D2
:101BCC0094F85030012B00F0FB80012384F8503046
:101BDC0094F85130042B02D0052384F851300023A3
:101BEC006365C4F83890E787A787C4F83080E78628
:101BFC00A7862364636423681A6812F0400F03D12C
:101C0C001A6842F040021A60E368B3F5006F11D015
:101C1C0063680BB1012F0BD1226B236812781A73F6
:101C2C00236B01332363E38E9BB2013B9BB2E386B0
:101C3C00012771E063680BB1012F0BD1226B236874
:101C4C001288DA60236B02332363E38E9BB2013B71
:101C5C009BB2E38601271BE023689A6812F0010F00
:101C6C000ED0E28F92B25AB1DA68A36B1A80A36BD2
:101C7C000233A363E38F9BB2013B9BB2E387012743
:101C8C0000F0ACF9801BA84202D3B5F1FF3F1ED186
:101C9C00E38E9BB21BB9E38F9BB2002B62D02368FF
:101CAC009A6812F0020FD7D0E28E92B2002AD3D0EB
:101CBC00002FD1D0226B1288DA60236B023323639E
:101CCC00E38E9BB2013B9BB2E3860027C4E7012362
:101CDC0084F85130002384F85030032063E02368EB
:101CEC009A6812F0010F0ED0E28F92B25AB1DA68F4
:101CFC00A36B1A70A36B0133A363E38F9BB2013BFD
:101D0C009BB2E387012700F069F9831BAB4202D336
:101D1C00B5F1FF3F1ED1EDB1E38E9BB213B9E38F4A
:101D2C009BB2FBB123689A6812F0020FD7D0E28EF7
:101D3C0092B2002AD3D0002FD1D0226B12781A7312
:101D4C00236B01332363E38E9BB2013B9BB2E3868F
:101D5C000027C4E7012384F85130002384F8503065
:101D6C00032020E0324629462046FFF769FD90B952
:101D7C00A36833B901932368DA6801929B680193D5
:101D8C00019B012384F85130002384F85030636D9B
:101D9C004BB1012007E020236365002384F8503009
:101DAC00012000E0022003B0BDE8F0830220FAE736
:101DBC000220F8E70120F6E70120F4E70120F2E722
:101DCC000220F0E72DE9F04383B01D4690F8513026
:101DDC00012B40F0B480044689469046DFB243683C
:101DEC00B3F5827F01D1836893B300F0F7F8064610
:101DFC00B9F1000F00F0A480B8F1000F00F0A08042
:101E0C0094F85030012B00F09F80012384F850305F
:101E1C00042384F8513000236365C4F83890A4F887
:101E2C003C80A4F83E802363A386E386236463642A
:101E3C00A368B3F5004F15D023681A6812F0400F51
:101E4C0003D11A6842F040021A60E368F3B143E030
:101E5C00042380F85130009513460A46FFF789FE9B
:101E6C0007466DE02268136823F040031360226874
:101E7C00136823F480431360DEE700F0AFF8801B97
:101E8C00A84202D3B5F1FF3F15D1A5B1E38F9BB2A8
:101E9C00002B42D023689A6812F0010FEDD0A26B90
:101EAC001B7B1370A36B0133A363E38F9BB2013BCA
:101EBC009BB2E387EAE7012384F85130002384F8CE
:101ECC00503003273CE000F089F8801BA84202D375
:101EDC00B5F1FF3F19D1C5B1E38F9BB2EBB12368CC
:101EEC009A6812F0010FEED0DA68A36B1A80A36B1C
:101EFC000233A363B4F83EC01FFA8CFC0CF1FF3C18
:101F0C001FFA8CFCA4F83EC0E6E7012384F851309C
:101F1C00002384F85030032712E03246294620462D
:101F2C00FFF7B0FC08B120236365012384F851301E
:101F3C00002384F85030636D13B9002700E00227AA
:101F4C00384603B0BDE8F0830227F9E790F851005A
:101F5C007047000010B504460E4B1A784FF47A7394
:101F6C00B3FBF2F30C4A1068B0FBF3F000F0F6FC94
:101F7C0068B90F2C01D901200AE0002221464FF04C
:101F8C00FF3000F0CDFC054B1C60002000E0012070
:101F9C0010BD00BF0000002008000020040000203D
:101FAC0008B5074A136843F010031360032000F0D0
:101FBC00A5FC0020FFF7CEFFFFF7BCFB002008BDFF
:101FCC0000200240034A1168034B1B780B4413603A
:101FDC00704700BFBC01002000000020014B1868B6
:101FEC00704700BFBC01002038B50446FFF7F6FF70
:101FFC000546B4F1FF3F02D0044B1B781C44FFF79D
:10200C00EDFF401BA042FAD338BD00BF00000020FA
:10201C0082B0084B1B68084AA2FB03235B0A00FB37
:10202C0003F3019300BF019B5A1E0192002BF9D1BF
:10203C0002B0704708000020D34D6210002800F059
:10204C00F18170B582B00446036813F0010F2CD0F7
:10205C00994B5B6803F00C03042B1DD0964B5B680B
:10206C0003F00C03082B12D06368B3F5803F41D00A
:10207C00002B55D103F1804303F504331A6822F485
:10208C0080321A601A6822F480221A6037E08A4B78
:10209C005B6813F4803FE7D0874B1B6813F4003F59
:1020AC0003D06368002B00F0BF81236813F0020F8C
:1020BC0075D0814B5B6813F00C0F5FD07E4B5B6867
:1020CC0003F00C03082B54D02369002B00F08A80FA
:1020DC007A4B01221A60FFF781FF0546764B1B688D
:1020EC0013F0020F75D1FFF779FF401B0228F5D9C9
:1020FC0003209EE1704A136843F4803313606368D5
:10210C0043B3FFF76BFF05466B4B1B6813F4003FA3
:10211C00CBD1FFF763FF401B6428F5D9032088E17E
:10212C00B3F5A02F09D0644B1A6822F480321A60E0
:10213C001A6822F480221A60E1E703F18043A3F5C8
:10214C003C331A6842F480221A601A6842F48032D6
:10215C001A60D4E7FFF742FF0546574B1B6813F490
:10216C00003FA2D0FFF73AFF401B6428F5D90320AB
:10217C005FE1514B5B6813F4803FA5D14E4B1B685C
:10218C0013F0020F03D02369012B40F04F814A4A10
:10219C00136823F0F803616943EAC10313602368F1
:1021AC0013F0080F33D0A369002B5CD0434B0122F2
:1021BC00C3F88024FFF712FF05463F4B5B6A13F010
:1021CC00020F21D1FFF70AFF401B0228F5D903208B
:1021DC002FE1394A136823F0F803616943EAC1031C
:1021EC001360DCE7354B00221A60FFF7F7FE05465B
:1021FC00314B1B6813F0020FD1D0FFF7EFFE401BE1
:10220C000228F5D9032014E10120FFF701FF236810
:10221C0013F0040F00F09680274BDB6913F0805FFE
:10222C0034D1254BDA6942F08052DA61DB6903F074
:10223C0080530193019B0125214B1B6813F4807F74
:10224C0026D0E368012B3DD0002B53D103F1804302
:10225C0003F504331A6A22F001021A621A6A22F098
:10226C0004021A6233E0154B0022C3F88024FFF7F6
:10227C00B5FE0546104B5B6A13F0020FC7D0FFF793
:10228C00ADFE401B0228F5D90320D2E00025D3E790
:10229C000B4A136843F480731360FFF79FFE0646E6
:1022AC00074B1B6813F4807FCBD1FFF797FE801B85
:1022BC006428F5D90320BCE0001002400000424223
:1022CC00007000405F4A136A43F001031362E36835
:1022DC0033B3FFF783FE06465A4B1B6A13F0020F0B
:1022EC002FD1FFF77BFE801B41F288339842F3D944
:1022FC0003209EE0052B09D0524B1A6A22F00102F2
:10230C001A621A6A22F004021A62E0E74D4B1A6A4A
:10231C0042F004021A621A6A42F001021A62D6E70B
:10232C00FFF75CFE0646474B1B6A13F0020F08D002
:10233C00FFF754FE801B41F288339842F3D90320F7
:10234C0077E0E5B9E369002B72D03E4A526802F09F
:10235C000C02082A56D0022B17D03B4B00221A66CF
:10236C00FFF73CFE0446374B1B6813F0007F47D049
:10237C00FFF734FE001B0228F5D9032059E0314A3F
:10238C00D36923F08053D361DCE72F4B00221A660C
:10239C00FFF724FE05462B4B1B6813F0007F06D07D
:1023AC00FFF71CFE401B0228F5D9032041E0236AED
:1023BC00B3F5803F1AD023494B6823F47413226A77
:1023CC00606A024313434B601F4B01221A66FFF7EE
:1023DC0005FE04461B4B1B6813F0007F0ED1FFF764
:1023EC00FDFD001B0228F5D9032022E0154A536895
:1023FC0023F40033A1680B435360DCE7002018E0A2
:10240C00002016E0012B16D00E4B5B6803F48031D4
:10241C00226A914211D103F47013626A93420ED175
:10242C00002006E001207047012002E0012000E0BE
:10243C00002002B070BD0120FBE70120F9E701206C
:10244C00F7E700BF00100240000042420F4B5B68F0
:10245C0003F00C02082A01D00D487047C3F38342E5
:10246C000C49885C13F4803F0BD0084B5B68C3F3BA
:10247C004043094AD35C064A02FB00F0B0FBF3F080
:10248C007047064B03FB00F0704700BF0010024082
:10249C0000127A00785700087457000800093D00B4
:1024AC00002800F0A08070B50D460446524B1B6806
:1024BC0003F007038B420BD24F4A136823F0070338
:1024CC000B431360136803F007038B4240F08D80BD
:1024DC00236813F0020F17D013F0040F04D0474AEF
:1024EC00536843F4E0635360236813F0080F04D07F
:1024FC00424A536843F460535360404A536823F094
:10250C00F003A1680B435360236813F0010F31D023
:10251C006368012B20D0022B25D0384A126812F0A8
:10252C00020F64D035494A6822F0030213434B6012
:10253C00FFF754FD0646314B5B6803F00C036268F1
:10254C00B3EB820F16D0FFF749FD801B41F28833A5
:10255C009842F0D9032045E0284A126812F4003F53
:10256C00E0D101203EE0254A126812F0007FD9D15B
:10257C00012037E0204B1B6803F00703AB420AD95C
:10258C001D4A136823F007032B431360136803F0F1
:10259C000703AB422DD1236813F0040F06D0174A62
:1025AC00536823F4E063E1680B435360236813F032
:1025BC00080F07D0114A536823F46053216943EA8A
:1025CC00C1035360FFF742FF0C4B5B68C3F303136B
:1025DC000B4AD35CD8400B4B18600B4B1868FFF7B9
:1025EC00B9FC002070BD012070470120FAE70120E2
:1025FC00F8E70120F6E700BF00200240001002407F
:10260C00905700080800002004000020014B1868B7
:10261C00704700BF0800002008B5FFF7F7FF044B18
:10262C005B68C3F30223034AD35CD84008BD00BFE8
:10263C00001002408857000808B5FFF7E7FF044B6D
:10264C005B68C3F3C223034AD35CD84008BD00BF08
:10265C00001002408857000870B582B00024A446D0
:10266C009EE07C4DAB4214D00CD8A5F58015AB4246
:10267C000FD005F57025AB420BD0A5F58015AB42FC
:10268C001FD106E0744DAB4203D005F58035AB424B
:10269C0017D18B68A3B1012B0DD04261082410E037
:1026AC00CC680EE0CC6804340BE0CC68083408E04D
:1026BC00CC680C3405E00261082402E0002400E040
:1026CC000424BEF1FF0F37D806464FEA8C0233685C
:1026DC000F25954023EA050304FA02F213433360F5
:1026EC004B6813F0805F59D05C4B9A6942F0010241
:1026FC009A619B6903F001030193019B4FEA9C02D1
:10270C00951C574B53F825600CF00305AD000F23B7
:10271C00AB4026EA0306534B984214D003F5806372
:10272C00984279D003F58063984277D003F58063A3
:10273C00984206D0042307E0061DACF10802920073
:10274C00C5E7032300E00023AB4033430232444D82
:10275C0045F822304B6813F4801F61D0424A9368CD
:10276C0043EA0E0393604B6813F4001F5ED03E4A9D
:10277C00D36843EA0E03D3604B6813F4003F5BD07D
:10278C00394A536843EA0E0353604B6813F4803F95
:10279C0058D0354A136843EA0E0313600CF1010C50
:1027AC000B6833FA0CF253D0012202FA0CF203EA52
:1027BC00020E32EA0303F1D14B68122B3FF651AFF4
:1027CC00122B3FF67EAF01A555F823F09F2600088B
:1027DC00AD260008B7260008C9260008CF26000839
:1027EC00CF260008CF260008CF260008CF260008E9
:1027FC00CF260008CF260008CF260008CF260008D9
:10280C00CF260008CF260008CF260008CF260008C8
:10281C00B1260008BD260008012395E7022393E7A3
:10282C00114A936823EA0E0393609CE70E4AD3681F
:10283C0023EA0E03D3609FE70B4A536823EA0E0387
:10284C005360A2E7084A136823EA0E031360A5E756
:10285C0002B070BD000022100000311000100240C8
:10286C000000014000080140000401400AB1016170
:10287C00704709040161704708B5054B5B69034259
:10288C0000D108BD024B5861FEF770FCF9E700BFA0
:10289C0000040140002808DB0901C9B200F16040C6
:1028AC0000F5614080F80013704700F00F0009013B
:1028BC00C9B2014B1954704714ED00E000B500F09B
:1028CC000700C0F1070CBCF1040F28BF4FF0040C3B
:1028DC00031D062B0FD9C31E4FF0FF3E0EFA0CF052
:1028EC0021EA000199400EFA03FE22EA0E0241EAA7
:1028FC0002005DF804FB0023EEE70000074AD368F2
:10290C0023F4E0631B041B0C000200F4E06003439F
:10291C0043F0BF6343F40033D360704700ED00E035
:10292C0010B50446054BD868C0F30220FFF7C6FF6C
:10293C0001462046FFF7AEFF10BD00BF00ED00E0E2
:10294C00002807DB00F01F02400901239340024AD4
:10295C0042F82030704700BF00E100E00138B0F1D0
:10296C00807F0BD24FF0E0235861054AF02182F8AA
:10297C0023100020986107221A61704701207047CC
:10298C0000ED00E0026802F10C0353E8003F23F471
:10299C0090730C3242E800310029F3D1026802F145
:1029AC00140353E8003F23F00103143242E80031D2
:1029BC000029F3D1036B012B05D0202380F8423082
:1029CC00002303637047026802F10C0353E8003FD5
:1029DC0023F010030C3242E800310029F3D1ECE76C
:1029EC0010B504460268136923F44053C1680B43C5
:1029FC00136183680269134342691A430168CB6807
:102A0C0023F4B05323F00C031343CB6002685369D7
:102A1C0023F4407381690B4353610268134B9A4250
:102A2C0020D0FFF7F9FD024602EB820202EB820294
:102A3C0063689B00B2FBF3F20D48A0FB023149091D
:102A4C00642303FB11231B013233A0FB03035B093B
:102A5C0003F0F00202EB011203F00F0321681344A0
:102A6C008B6010BDFFF7E8FD0246DDE70038014042
:102A7C001F85EB512DE9F04383B005460E461746F2
:102A8C009946DDF828802B681C6836EA04040CBFD4
:102A9C0001240024BC4228D1B8F1FF3FF3D0FFF74A
:102AAC009DFAA0EB0900404523D8B8F1000F22D0C5
:102ABC002B68DA6812F0040FE5D0802EE3D0402E9C
:102ACC00E1D01A6812F0080FDDD0002401941A68C6
:102ADC0001925B680193019B2846FFF753FF082383
:102AEC006B6485F84040012000E0002003B0BDE895
:102AFC00F0830320FAE70320F8E760B310B504462F
:102B0C0090F8413013B3242384F841302268D36801
:102B1C0023F40053D3602046FFF762FF2268136949
:102B2C0023F4904313612268536923F02A03536101
:102B3C002268D36843F40053D360002060642023E0
:102B4C0084F8413084F84230606310BD80F8403026
:102B5C00FEF774FDD7E7012070472DE9F04182B0F4
:102B6C001E4690F84130202B56D104460D46904617
:102B7C00002955D00AB901204FE0002343642123DA
:102B8C0080F84130FFF72AFA0746A4F82480A4F80D
:102B9C002680A368B3F5805F02D04FF0000814E0E4
:102BAC0023692BB34FF000080FE0202384F8413049
:102BBC00032032E038F8023B2268C3F30803536069
:102BCC00E28C92B2013A92B2E284E38C9BB293B162
:102BDC0000963B46002280212046FFF74BFF002841
:102BEC00E3D1002DE6D015F8012B23685A60E7E7F6
:102BFC00A8460025E9E700963B46002240212046E6
:102C0C00FFF738FF18B9202384F8413005E0202362
:102C1C0084F84130032000E0022002B0BDE8F081CE
:102C2C000120FAE781628285C28500234364222356
:102C3C0080F84230036923B10268D36843F480738F
:102C4C00D3600268536943F0010353610268D3688F
:102C5C0043F02003D3600020704708B590F8423051
:102C6C00202B08D149B10AB9012008BD0023036308
:102C7C00FFF7D8FFF9E70220F7E70120F5E77047E7
:102C8C0010B503460C4A0D490D48006840B10C487C
:102C9C0000680344521A934206D8094A136010BDC7
:102CAC000748084C0460F2E701F008FB0C230360B2
:102CBC004FF0FF30F3E700BF00500020000400008D
:102CCC00C00100200008002008B50B480B4B036026
:102CDC000B4B436000238360C3604FF4804202615E
:102CEC0043618361C361036200F0ECF900B908BD74
:102CFC00FEF74EFAFBE700BFC40100200054004071
:102D0C00A086010010B586B00023029303930493B0
:102D1C0005930268154B9A4201D006B010BD144CB5
:102D2C00A36943F00803A361A36903F008030093AC
:102D3C00009B4FF4407302931223039303230593D8
:102D4C0002A90C48FFF788FC0B4A536843F0E06378
:102D5C0043F002035360E36943F40013E361E36956
:102D6C0003F400130193019BD7E700BF005400400C
:102D7C0000100240000C01400000014003685A6939
:102D8C0012F4806F01D1002070476FF480625A6199
:102D9C0000230363202280F83D2080F83E30026C33
:102DAC0042F00402026480F83C30012070472DE9A7
:102DBC00F04106460C46174698463BE0FFF70EF9E5
:102DCC00069BC01A404502D8B8F1000F32D1012D34
:102DDC0018D033689B6924EA03039BB2B3FA83F3DC
:102DEC005B099F4226D100233363202286F83D20C5
:102DFC0086F83E30326C42F02002326486F83C3069
:102E0C00012027E033685B6924EA03039BB2B3FA21
:102E1C0083F35B09E5E733685B6924EA030C1FFA6B
:102E2C008CFCBCFA8CFC4FEA5C1C674511D1B8F1E8
:102E3C00FF3FC3D1C4F30745012DECD033689B6928
:102E4C0024EA030C1FFA8CFCBCFA8CFC4FEA5C1CC9
:102E5C00EBE70020BDE8F0812DE9F84305460E466E
:102E6C009046994653E01A6842F400721A602B6837
:102E7C006FF480625A6100232B63202285F83D2079
:102E8C0085F83E302A6C42F004022A6485F83C3006
:102E9C0001204AE0FFF7A2F8A0EB0900404502D858
:102EAC00B8F1000F33D1012F17D02B689B6926EA9C
:102EBC0003039BB2003B18BF012343B300232B63D6
:102ECC00202285F83D2085F83E302A6C42F0200205
:102EDC002A6485F83C30012027E02B685B6926EAE0
:102EEC0003039BB2003B18BF0123E6E72B689C69E8
:102EFC0026EA0404A4B2003C18BF0124A4B12B6838
:102F0C005A6912F4806FAED1B8F1FF3FC2D1C6F34B
:102F1C000747012FEAD12B685C6926EA0404A4B2A6
:102F2C00003C18BF0124E9E70020BDE8F88370B528
:102F3C0004460D46164623685B6913F0800F21D1B9
:102F4C002046FFF71BFFF8B9B5F1FF3FF3D0FFF7B1
:102F5C0045F8801BA84201D8002DECD123685B6991
:102F6C0013F0800FE7D100232363202284F83D2047
:102F7C0084F83E30226C42F02002226484F83C300B
:102F8C00012000E0002070BD0120FCE72DE9F0439A
:102F9C0085B004460D4691461F46DDF830800D9EE7
:102FAC000368196841F48071196000964346002249
:102FBC004FF00111FFF7FBFE60B9236805F0FE0529
:102FCC001D613346424626492046FFF745FF68B14E
:102FDC00012008E023681B6813F4807F02D04FF4B3
:102FEC0000732364032005B0BDE8F0830023039332
:102FFC0023685A6903929B690393039B32464146AB
:10300C002046FFF794FF30B9012F0FD123685FFAE8
:10301C0089F61E61E7E7236C042B01D00120E2E75F
:10302C002268136843F400731360F7E723684FEAD0
:10303C0019221A61324641462046FFF778FF20B923
:10304C0023685FFA89F61E61CDE7236C042B01D04F
:10305C000120C8E72268136843F400731360F7E794
:10306C000200010070B504460D46164623685B69E4
:10307C0013F0040F21D12046FFF780FEF8B9B5F10B
:10308C00FF3FF3D0FEF7AAFF801BA84201D8002D0A
:10309C00ECD123685B6913F0040FE7D100232363A1
:1030AC00202284F83D2084F83E30226C42F020022D
:1030BC00226484F83C30012000E0002070BD012027
:1030CC00FCE70000002800F0CC8070B5044690F8B6
:1030DC003D30002B77D0242384F83D3022681368D0
:1030EC0023F0010313602268136843F40043136058
:1030FC002268136823F400431360FFF78DFA6268AB
:10310C005A4B9A4264D85A4B98428CBF00230123E5
:10311C00002B40F0A8805749A1FB00318B0C25688F
:10312C006A6822F03F0242EA91426A6021680A6AA8
:10313C0022F03F0266684D4DAE424FD80133134327
:10314C000B622168CA6922F44F4222F0FF026568C3
:10315C00464B9D424CD8431E6D00B3FBF5F3013337
:10316C0040F6FC70034278D0C3F30B031A43CA61D8
:10317C0021680B6823F0C003E269206A0243134301
:10318C000B6021688B6823F4034323F0FF0322694F
:10319C00E068024313438B602168CB6823F0FF0384
:1031AC006269A06902431343CB602268136843F041
:1031BC000103136000202064202384F83D30206339
:1031CC0084F83E0070BD80F83C30FFF79BFD82E731
:1031DC00294B98428CBF0023012399E74FF4967535
:1031EC0005FB03F3254DA5FB03539B090133A6E710
:1031FC00A668BEB9431E05EB450CB3FBFCF30133CB
:10320C00C3F30B03B3FA83F35B0943BBC6B9431E89
:10321C0005EB4505B3FBF5F30133C3F30B0343F4A3
:10322C000043A3E7431E05EB850C0CEB8C0CB3FBA6
:10323C00FCF30133C3F30B03B3FA83F35B09E4E749
:10324C00431E05EB850505EB8505B3FBF5F3013353
:10325C00C3F30B0343F4404388E7042386E70123BD
:10326C0084E7012070470120ACE700BFA086010075
:10327C007F841E0083DE1B43FF083D00D34D62108C
:10328C002DE9F04383B004460F46904699460C9EB8
:10329C00FEF7A4FE94F83D20202A03D0022003B0B0
:1032AC00BDE8F08305460090192301224A492046C7
:1032BC00FFF77DFD002840F0898094F83C30012B0D
:1032CC0000F08680012384F83C3023681A6812F0E1
:1032DC00010F03D11A6842F001021A6022681368C8
:1032EC0023F400631360212384F83D30402384F8D9
:1032FC003E30002323640A9B6362BDF82C30638547
:10330C00638D2385354BE362019500964B4642460F
:10331C0039462046FFF73AFE00285BD1238D002B5F
:10332C0035D02A4631462046FFF701FE20BB626AA3
:10333C00236812781A61626A531C6362218D013909
:10334C0089B22185638D9BB2013B9BB26385236857
:10335C00586910F0040FE1D00029DFD052781A61BF
:10336C00636A01336362238D013B2385638D9BB2BA
:10337C00013B9BB26385D1E7236C042B01D0012068
:10338C008DE72268136843F400731360F7E72A464D
:10339C0031462046FFF766FE50B1236C042B01D05A
:1033AC0001207CE72268136843F400731360F7E78D
:1033BC002268136843F400731360202384F83D30B3
:1033CC00002384F83E3084F83C3068E7022066E73E
:1033DC00022064E7012062E7020010000000FFFFFA
:1033EC00F8B504460E4617461D4600228188006833
:1033FC00FFF73CFA4FF4FA633A463146A069FEF700
:10340C00D6FAA069FEF7A2FD0128FAD14FF4FA63AF
:10341C00BDF818202946A069FEF7D4FCA069FEF778
:10342C0095FD0128FAD10122A1882068FFF71EFA28
:10343C00F8BDF8B504460E4617461D460022818895
:10344C000068FFF713FA4FF4FA633A463146A06965
:10345C00FEF7ADFAA069FEF779FD0128FAD14FF419
:10346C00FA63BDF818202946A069FEF7A0FAA069F6
:10347C00FEF76CFD0128FAD10122A1882068FFF724
:10348C00F5F9F8BD00B585B001F07F018DF80E108F
:10349C00012200920DF10F030DF10E01FFF7A0FFB9
:1034AC009DF80F0005B05DF804FB00B585B061F028
:1034BC007F018DF80E108DF80F20012200920DF176
:1034CC000F030DF10E01FFF7B4FF05B05DF804FB1F
:1034DC0038B504460D460121FFF7D4FF0246062DF0
:1034EC0009D8DFE805F0040D0815081D250000F0CB
:1034FC00F8020023E36101212046FFF7D6FF38BD17
:10350C0020F0070242F00102D2B20123E361F2E79C
:10351C0020F0070242F00302D2B20323E361EAE790
:10352C0020F0070242F00502D2B20523E361E2E784
:10353C0020F0070242F00602D2B20623E361DAE77A
:10354C0038B504460D462621FFF79CFF55B140F0D7
:10355C000802D2B226212046FFF7A7FF0A20FEF769
:10356C0043FD38BD00F0F702F4E70000D0B594B08D
:10357C00044650220F49684600F0CCFE94F82420F3
:10358C0094F8253014A901EBC30353E91467012007
:10359C009040FCF70FFF32463B46FDF79FF8FDF7D6
:1035AC0085F91028D4BF002101212046FFF7C8FF60
:1035BC0014B0D0BDF854000838B50446CA045511EF
:1035CC00C2F347520621FFF770FF0520FEF70CFDF2
:1035DC002A0AD2B207212046FFF767FF0520FEF723
:1035EC0003FD002208212046FFF75FFF0520FEF7B0
:1035FC00FBFC38BD70B505460C2904DC0C460629CD
:10360C0002DC072400E00C241E212846FFF73AFFB9
:10361C0006460A20FEF7E8FC2201D2B206F00F069D
:10362C003244D2B21E212846FFF73FFF0A20FEF794
:10363C00DBFC2846FFF79AFF70BD08B50A46092146
:10364C00FFF733FF0A20FEF7CFFC08BD08B52C2985
:10365C000DD9F0290CD9F021F0291CD81E310F4BB3
:10366C0083FB0123CA17C2EBA302D2B20AE02D21BD
:10367C007829F1D82D39094B83FB0123CA17C2EBEA
:10368C006302D2B22032D2B20B21FFF70EFF0A2016
:10369C00FEF7AAFC08BD0022F4E700BF6766666669
:1036AC0010B504461E21FFF7EDFE40F00702D2B222
:1036BC001E212046FFF7F9FE0A20FEF795FC10BDEF
:1036CC0070B582B0044615461E4661F07F018DF838
:1036DC000710002281880068FFF7C8F84FF4FA63DE
:1036EC0001220DF10701A069FEF761F9A069FEF74F
:1036FC002DFC0128FAD14FF4FA6332462946A06911
:10370C00FEF755F9A069FEF721FC0128FAD1012238
:10371C00A1882068FFF7AAF802B070BD012070479D
:10372C002DE9F04106460F4615461C46D0F81C8084
:10373C000121FFF7CDFE0E213046FFF7A3FE024616
:10374C000D213046FFF7B1FE2A4622213046FFF705
:10375C00ACFE2B463A4600213046FFF7B1FF032161
:10376C003046FFF7B5FE0FE0FF2212213046FFF77F
:10377C009CFE41463046FFF7ABFE01252846BDE8CE
:10378C00F0810120FEF730FC12213046FFF77AFE63
:10379C0010F00805E8D1013CA4B2002CF1D141464F
:1037AC003046FFF795FEE9E708B50521FFF790FED7
:1037BC0008BDF8B506460C461546002304E04FF04C
:1037CC00000C04F803C001339D42F8DC01213046A3
:1037DC00FFF77EFE12213046FFF754FE10F0400733
:1037EC0005D105213046FFF773FE3846F8BDFF22A0
:1037FC0012213046FFF759FE13213046FFF742FEE7
:10380C00074610213046FFF73DFE02460D2130469B
:10381C00FFF74BFEBD4228BF3D46EFB2002505E049
:10382C0000213046FFF72EFE60550135AF42F7DC24
:10383C00D7E738B50446FFF771FF10B940F2F7101F
:10384C0038BD00212046FFF743FE0A20FEF7CCFBD3
:10385C0001212046FFF716FE05460A20FEF7C4FBA1
:10386C0065F07F02D2B201212046FFF71EFE6420D4
:10387C00FEF7BAFB216A2046FFF79EFE94F82A1049
:10388C002046FFF7DAFE94F82B102046FFF7DEFEF9
:10389C0023220C212046FFF708FE2046FFF700FFED
:1038AC0094F824102046FFF7A5FEFF221F21204686
:1038BC00FFF7FBFD94F825201201D2B294F82630C4
:1038CC005B00DBB21A4402F0FE021D212046FFF71A
:1038DC00ECFD2046FFF74AFE228D120A20212046DD
:1038EC00FFF7E3FD94F8282021212046FFF7DDFDAA
:1038FC0040212046FFF7C6FD40F03F02D2B24021E6
:10390C002046FFF7D2FD01212046FFF7E1FD012300
:10391C00E3610A20FEF768FB42212046FFF7B2FD67
:10392C00122802D04FF4CA708AE7C82088E700003A
:10393C0000B587B08DF817004FF0FF3302930123C9
:10394C0001930DF117020092002278210248FFF733
:10395C0097FC07B05DF804FBC401002000B585B0EE
:10396C004FF0FF33029389B2019100900123402262
:10397C0078210348FFF784FC05B05DF804FB00BF19
:10398C00C401002008B530B900214FF4806203480F
:10399C0000F07AFC08BDFF21F7E700BF20020020F1
:1039AC0010B5002412E0A4F15000C0B2FFF7C0FF24
:1039BC000020FFF7BDFF1020FFF7BAFF802105485C
:1039CC0000EBC410FFF7CAFF0134E4B2072CEAD9AC
:1039DC0010BD00BF2002002010F0800F1ED13F2927
:1039EC001CD810B4012A0ED0CB0800EBC3100C4C21
:1039FC00225C01F0070101238B40DB435BB21340D7
:103A0C00235410BC7047CB0800EBC310044C235C50
:103A1C0001F007018A4013432354F2E7704700BFBB
:103A2C00200200202DE9F04784B0814604A800E96B
:103A3C000E009DF83080A9F12003DBB25E2B46D836
:103A4C00039B83B1A9F120029E5C254B1B88334458
:103A5C00802B40DC224B5B889DF805A05344402B07
:103A6C003BDC002522E09DF80460EEE71C4B188837
:103A7C00598829442044B8FA88F25209C9B2C0B214
:103A8C00FFF7AAFF0134A6420FD907FA04F313F487
:103A9C00004FEBD0124B18885988294420444246D9
:103AAC00C9B2C0B2FFF798FFECE70135AA4508D9B7
:103ABC00A9F1200303FB0A53029A32F81370002475
:103ACC00E1E7074B1A8816441E80484600E00020A8
:103ADC0004B0BDE8F0870020FAE70020F8E700BF4B
:103AEC001802002030B587B0044606A800E90E0085
:103AFC009DF8285000E00134207848B1009506ABC1
:103B0C0013E90E00FFF78EFF034620788342F2D0B4
:103B1C0007B030BD014B1880598070471802002047
:103B2C002DE9F04F83B004460E4691469B469DF816
:103B3C0030A0A2EB0008B8F1000FB8BFC8F1000824
:103B4C005F1A002FB8BF7F4282420DD90123009328
:103B5C00B3450DD901230193A8EB070552465946ED
:103B6C004846FFF739FF1BE04FF0FF330093EFE7B8
:103B7C004FF0FF330193EFE7524631462046FFF7F3
:103B8C002BFF6B007A42B2EB450F03DAED1B009A68
:103B9C001444E4B2984503DD4544019B1E44F6B23F
:103BAC004C45E9D15E45E7D103B0BDE8F08F10F08C
:103BBC00800F52D12DE9F04F83B099465742C2F194
:103BCC00010254003F2945D84FF0000A00900191A2
:103BDC0008E02346A7423BDA01377C0001341C4441
:103BEC00002F37DCFEB2009BA3EB06085FFA88F8C7
:103BFC005FFA8AF5019905EB010B5FFA8BFB4A46DC
:103C0C0059464046FFF7E8FE009A1644F6B24A467B
:103C1C0059463046FFF7E0FE019B5D1BEDB24A466C
:103C2C0029463046FFF7D8FE4A4629464046FFF75C
:103C3C00D3FEA245CDDB0AF1010A4FEA4A03013358
:103C4C0023441AEB070FC5D1A742C3DB0024C1E7FD
:103C5C001C46C5E703B0BDE8F08F70472DE9F8436B
:103C6C00064688469DF820708146904228BF9146B2
:103C7C00904238BF16460D46994228BF1D469942C0
:103C8C0038BF98460DE03A4629462046FFF7A4FE79
:103C9C000134E4B2B44202D814F0800FF3D00135F1
:103CAC00EDB2454503D83F2D01D84C46F2E7BDE8AF
:103CBC00F88310B504468120FFF73AFE2046FFF743
:103CCC0037FE10BD08B530B1054B01225A71AF203B
:103CDC00FFF72EFE08BD024B00225A71AE20F7E70B
:103CEC001802002008B56420FEF77EF90020FFF7CB
:103CFC00E9FF2020FFF71CFE0020FFF719FEB02083
:103D0C00FFF716FEC820FFF713FE0020FFF710FE8A
:103D1C001020FFF70DFE4020FFF70AFEFF20FFF7F3
:103D2C00C8FFA120FFF704FEA620FFF701FEA82084
:103D3C00FFF7FEFD3F20FFF7FBFDA420FFF7F8FD8A
:103D4C00D320FFF7F5FD0020FFF7F2FDD520FFF79C
:103D5C00EFFDF020FFF7ECFDD920FFF7E9FD222065
:103D6C00FFF7E6FDDA20FFF7E3FD1220FFF7E0FD99
:103D7C00DB20FFF7DDFD2020FFF7DAFD8D20FFF7BC
:103D8C00D7FD1420FFF7D4FD0120FFF79BFF002087
:103D9C00FFF7F8FDFFF704FE034B00221A805A8050
:103DAC0001221A7108BD00BF1802002008B50122BB
:103DBC0002490348FEF751FF08BD00BF78060020FA
:103DCC007401002070B506460D461049FCF758FFEB
:103DDC00FCF7F2FF0446642004FB00F0FCF748FEFD
:103DEC0001463046FCF78EFD0949FCF749FF0646B3
:103DFC002046FCF73DFE3146FCF786FD532D01D0E5
:103E0C00572D01D100F1004070BD00BF0000C84229
:103E1C000000704210B588B004460622434900F0F9
:103E2C003BFA60B306224249204600F035FA0028DE
:103E3C0050D006223F49204600F02EFA002862D0CE
:103E4C0006223D49204600F027FA002859D13B4B69
:103E5C0003F11002059203F10C02049203F1090222
:103E6C000392A3F11402029203F1080201921A1DAB
:103E7C0000921A1F3249204600F0D8F941E0314B2C
:103E8C0003F11C02079203F11802069203F11402CB
:103E9C00059203F11002049203F10C02039203F158
:103EAC00090202921A1F019203F1080200921A1DD4
:103EBC002549204600F0BAF9002822DD234C217E4A
:103ECC002069FFF77FFF6060617EE068FFF77AFF93
:103EDC00206016E01B4B03F12802059203F124022B
:103EEC00049203F12002039203F1090202921A1FB9
:103EFC00019203F1080200921A1D1549204600F0A8
:103F0C0095F908B010BD134B03F1240203921A1F4C
:103F1C0002925A1C0192A3F10C020092A3F1080226
:103F2C000D49204600F082F9EBE700BF0856000867
:103F3C0038560008605600088456000864060020B5
:103F4C008C56000830060020105600082006002071
:103F5C0040560008380600206856000810B5044684
:103F6C00FCF7CEF8642382B221460248FEF7F5FD39
:103F7C0010BD00BF2C01002030B58FB01C481D4B6C
:103F8C0003601022828083604FF48072828103610F
:103F9C0001238382184B83614FF4D9730362092385
:103FAC0080F82430082380F82530042380F826304C
:103FBC00FC2380F82A30822380F82B300A230385D7
:103FCC00FFF737FC0446C8280BD001AD02460B495D
:103FDC00284600F009F92846FFF7C0FF20460FB02D
:103FEC0030BD0748FFF7BAFF0148FFF7DDFBF5E7E7
:103FFC007C06002000080140D4000020CC560008AC
:10400C00AC56000830B591B008220EA91148FFF744
:10401C00D0FB08B911B030BD044601AD9DF8393064
:10402C0002460D49284600F0DFF82846FFF796FFB8
:10403C00012CEFD99DF83820084B1A709DF83920C7
:10404C00074B1A70074B01221A700248FFF7ACFBA2
:10405C00E0E700BF7C060020F05600087B0600203D
:10406C007A0600207906002010B582B0044610486C
:10407C00FFF774FF01238DF804308DF8054064239D
:10408C00022201A90B48FFF74BFB01280CBF0124AE
:10409C00002408D00848FFF761FF0648FFF784FBAF
:1040AC00204602B010BD0548FFF758FFF5E700BFEA
:1040BC00185700087C0600205C570008445700087D
:1040CC0030B583B002228DF804208DF80500084D20
:1040DC00642301A92846FFF723FB012814BF002401
:1040EC0001242846FFF760FB204603B030BD00BF1B
:1040FC007C060020014B1878704700BF7906002021
:10410C00044B00221A70044B1B780370034B187875
:10411C00704700BF790600207A0600207B0600203D
:10412C00014B00221A707047B006002008B5054BF1
:10413C0001221A70FDF752FF034B1860034B00224B
:10414C001A6008BDB0060020AC060020A8060020AE
:10415C000F4B1B7803B9704710B5FDF73FFF0446B2
:10416C000C4B1B68C31A41F2883293420AD80A4B93
:10417C001B68E41A42F210739C4202D9044B0022D1
:10418C001A7010BD034B18600220FFF799FFEEE781
:10419C00B0060020A8060020AC060020FEF76FFD3C
:1041AC000B480C490C4A002302E0D458C450043389
:1041BC00C4188C42F9D3094A094C002301E013605E
:1041CC000432A242FBD300F07FF8FDF715F87047DC
:1041DC00000000205C000020E06D00085C00002066
:1041EC00FC070020FEE700000EB46FF0004110B594
:1041FC0000249DB01FAB02900690079104910948D2
:10420C00094953F8042B0591006802A901931B94EA
:10421C0000F0E4F9029B1C701DB0BDE8104003B027
:10422C00704700BF0C0000200802FFFF0EB44FF4D3
:10423C00017270B500259DB021AC54F8046BADF83B
:10424C0014201B9502900690FBF75AFF0B4B039022
:10425C000B934FF6FF7307900948ADF816303246B2
:10426C00234602A900680F951495019400F00CFBED
:10427C001DB0BDE8704003B0704700BF914200080C
:10428C000C0000200020704703460244934200D1EA
:10429C00704703F8011BF9E710B56AB101398418AE
:1042AC0010F8012B11F8013F9A4203D1A04201D022
:1042BC00002AF5D1D01A10BD1046FCE7014B186846
:1042CC00704700BF0C00002070B500260C4D0D4B44
:1042DC005B1B9C10A64209D1002601F0F9F80A4D8F
:1042EC000A4B5B1B9C10A64205D170BD55F8043BD4
:1042FC0098470136EEE755F8043B98470136F2E74C
:10430C00D86D0008D86D0008D86D0008DC6D000869
:10431C00704770470A44914200F1FF3300D1704757
:10432C0010B511F8014B914203F8014FF9D110BDB2
:10433C0038B50546002940D051F8043C0C1F002B21
:10434C00B8BFE41800F0DEF81C4A136833B9636098
:10435C0014602846BDE8384000F0DAB8A34208D90A
:10436C00206821188B4201BF19685B68091821600D
:10437C00EDE71A465B680BB1A342FAD911685018E5
:10438C00A0420BD120680144501883421160E0D147
:10439C0018685B68084410605360DAE702D90C2394
:1043AC002B60D6E7206821188B4201BF19685B6827
:1043BC000918216063605460CBE738BDF807002012
:1043CC0070B50F4E0C463168054611B900F040FF30
:1043DC0030602146284600F03BFF431C03D14FF0D0
:1043EC00FF34204670BDC41C24F00304A042F8D056
:1043FC00211A284600F02CFF0130F2D1EFE700BF64
:10440C00F40700202DE9F843CD1C25F003050835F1
:10441C000C2D38BF0C25002D064601DBA94204D912
:10442C000C2333600020BDE8F883DFF8D48000F063
:10443C0069F8D8F800301C4644BB29463046FFF7D3
:10444C00BFFF431C044658D1D8F800402746002F24
:10445C0043D1002C4BD023683946304604EB03097A
:10446C0000F0F6FE814542D1216830466D1A29468E
:10447C00FFF7A6FF01303AD023682B442360D8F80D
:10448C0000305A6862BBC8F800700FE02268521BFB
:10449C0020D40B2A17D96119A342256018BF596083
:1044AC00636808BFC8F8001062514B60304600F0DA
:1044BC002FF804F10B00231D20F00700C21A1CBFBB
:1044CC001B1AA350AFE76268A3420CBFC8F80020C8
:1044DC005A60EBE723466468AEE73C467F68B6E774
:1044EC001A465B68A342FBD100235360DEE70C2322
:1044FC003046336000F00CF894E70560D6E700BF57
:10450C00F80700200148FFF703BF00BFF0070020A9
:10451C000148FFF7FEBE00BFF00700202DE9F04771
:10452C001F468E688246BE420C469046334653D890
:10453C00B1F90C0010F4906F2BD0656923680969F0
:10454C0005EB4505A3EB010905EBD5757B1C6D103F
:10455C004B44AB422A4684BF1D462A46430527D509
:10456C0011465046FFF74EFF064658B34A4621699E
:10457C00FFF7D0FEA38923F4906343F08003A3815B
:10458C0026614E4426603B463E466561A5EB090517
:10459C00A5601F463A464146206800F040FE0020C8
:1045AC00A3689B1BA36023683B442360BDE8F08792
:1045BC00504600F06BFE06460028E1D150462169BA
:1045CC00FFF7B6FE0C23CAF80030A3894FF0FF307A
:1045DC0043F04003A381E9E73E46DBE72DE9F04FCA
:1045EC0098468B8907461B060D4614469DB010D580
:1045FC000B6973B94021FFF705FF2860286130B9BA
:10460C000C233B604FF0FF301DB0BDE8F08F402312
:10461C006B610023099320238DF8293030234FF050
:10462C000109CDF80C80DFF898818DF82A302346EB
:10463C009A4613F8012B0AB1252AF9D1BAEB040BCF
:10464C000BD05B46224629463846FFF767FF013000
:10465C0000F0A780099A5A4409929AF80030002B6E
:10466C0000F09F8000234FF0FF32CDE905230AF1C3
:10467C00010A049307938DF853301A93544605227C
:10468C0014F8011B4E4800F0F3FD049AD8B9D0067B
:10469C0044BF20238DF85330110744BF2B238DF8D2
:1046AC0053309AF800302A2B15D0544600204FF086
:1046BC000A0C079A214611F8013B303B092B4BD9C8
:1046CC00B0B1079214E0A0EB080309FA03F313430B
:1046DC00A2460493D2E7039B191D1B680391002B80
:1046EC00BBBF5B4242F0020207930793B8BF049230
:1046FC0023782E2B0AD163782A2B32D1039B0234D8
:10470C001A1D1B68039243EAE3730593DFF8B4A008
:10471C0003225046217800F0ABFD38B14022049BB7
:10472C00A0EB0A00824013430134049314F8011BDC
:10473C00062225488DF8281000F09AFD002836D066
:10474C00224B1BBB039B073323F007030833039354
:10475C00099B334409936AE70C4601200CFB023297
:10476C00A8E700234FF00A0C1946013405932046A4
:10477C0010F8012B303A092A03D9002BC6D0059129
:10478C00C4E7044601230CFB0121F0E703AB0093C3
:10479C002A4638460E4B04A9AFF30080421C06464D
:1047AC00D6D1AB895B063FF52DAF09982CE703AB4F
:1047BC0000932A463846064B04A900F055FAEDE75B
:1047CC00806C0008866C00088A6C000800000000F1
:1047DC002945000838B54B1C144603D14FF0FF3562
:1047EC00284638BD9389CDB223F020039381636BA7
:1047FC0052688BB1A36B934208DD23685A1E22606A
:10480C0003F8015C636801336360E9E7214600F05B
:10481C00CEFC0028F1D0E1E72169236851B199421F
:10482C0008D213F8011CA94204D1013B01322360C8
:10483C006260D5E7C4E90F3204F1440363630323D8
:10484C00A363234603F8465F23600123DCE710B51E
:10485C000C46496B69B104F14403994201D0FFF74E
:10486C0067FD0020236C6063636013B1E36B23600E
:10487C0010BD23694FF0FF30236000236360A389D0
:10488C0043F02003A381F3E72DE9F04F0D460021FF
:10489C00ADF5237D0746E84641ACC4E9031101A9F7
:1048AC006161AE49DFF8B8B2C4F87C11AD49009330
:1048BC00C4F8801192F80090B9F1000F00F06081FB
:1048CC001BF80930561C13F008031BD06B68002B27
:1048DC0010DD2B681A781BF80220120701D432461F
:1048EC00E8E722690133013222616A682B60013AE0
:1048FC006A60EBE729463846D4F88031984700289F
:10490C00E7D0ECE7B9F1250F40F085802360A36078
:10491C0053782A2B04BF1023961C4FF00A0208BFB1
:10492C002360B2461AF8011BA1F13003092B1DD9E3
:10493C008D4B0322184600F09BFC38B18A4B56462F
:10494C00C01A0123226883401343236016F8013BED
:10495C00782B06D8572B10D8252B5CD056D8002B8B
:10496C0075D00323A3610A23636088E0A3685646CD
:10497C0002FB03113039A160D3E7A3F15802202ABE
:10498C00EFD801A151F822F0694A00086F490008DC
:10499C006F490008C54A00086F4900086F490008B4
:1049AC006F4900086F4900086F4900086F490008FB
:1049BC006F490008DB4A0008C14A00081F4A00087A
:1049CC001F4A00081F4A00086F4900087B4A00086C
:1049DC006F4900086F4900086F4900086F490008CB
:1049EC00EB4A0008834A0008614A00086F49000836
:1049FC006F490008E74A00086F490008C14A0008DF
:104A0C006F4900086F490008694A0008453B022BB2
:104A1C00A7D8052332E06B68002B0DDD2B681A78C4
:104A2C004A4540F0AD8001336A682B602369013A36
:104A3C0001336A60236152E729463846D4F8803145
:104A4C0098470028EAD0E068002840F091804FF0A9
:104A5C00FF3091E0226842F020022260226842F48A
:104A6C000072226010226E2B626006D801E00023D7
:104A7C006360032302E0082363600423A3616B6873
:104A8C00002B3CDD2368590605D42B681A781BF8DB
:104A9C00022012073BD4A369022B4BDC43462A4667
:104AAC002146384600F000FA012869D002287FF42C
:104ABC0016AFC8E70A22D6E7314601A800F03EFB44
:104ACC002368064643F0400323600123D6E723689E
:104ADC0043F0400323600023D0E70223CEE7206895
:104AEC00C3063FF5FCAED8F800302269191DC8F892
:104AFC0000101B68C0074CBF1A801A60EFE62946ED
:104B0C003846D4F8803198470028BBD09BE72269FF
:104B1C00013222616A68013A002A6A6002DD0133BF
:104B2C002B60B2E729463846D4F8803198470028E4
:104B3C00ABD088E7042B06DC43462A462146384690
:104B4C0000F00CFAB0E7094B002B3FF4C8AE43461B
:104B5C002A4621463846AFF30080A5E7E147000816
:104B6C00CF6C00085B480008866C00080000000051
:104B7C00AB895B063FF56BAF0DF5237DBDE8F08F80
:104B8C00E068F9E72DE9F047164698468A680B6904
:104B9C0007469342B8BF1346336091F843200C4646
:104BAC00DDF820900AB1013333602368990642BFC7
:104BBC00336802333360256815F0060506D104F11D
:104BCC00190AE36832689B1AAB422BDC94F8433029
:104BDC002268003B18BF0123920630D44146384668
:104BEC0004F14302C847013023D02368226903F043
:104BFC000603042B14BF002533684FF0000608BFD2
:104C0C00E56804F11A0408BFED1A54F8123C08BF09
:104C1C0025EAE5759342C4BF9B1AED18B5421AD12B
:104C2C00002008E00123524641463846C84701306F
:104C3C0003D14FF0FF30BDE8F0870135C1E73020DC
:104C4C00E11881F843005A1C94F8451022440233B1
:104C5C0082F84310C2E70123224641463846C84732
:104C6C000130E6D00136D9E72DE9FF470F7E91469A
:104C7C00782F80460C469A460C9E01F1430207D8C9
:104C8C00622F0AD8002F00F0D280582F00F0B78086
:104C9C0004F1420684F842703AE0A7F16303152B45
:104CAC00F6D801A151F823F00D4D0008214D000854
:104CBC009D4C00089D4C00089D4C00089D4C000824
:104CCC00214D00089D4C00089D4C00089D4C00088F
:104CDC009D4C0008214E00084B4D0008D74D000894
:104CEC009D4C00089D4C0008434E00089D4C00084C
:104CFC004B4D00089D4C00089D4C0008DF4D0008F2
:104D0C0033681A1D1B68326004F1420684F8423085
:104D1C0001239DE033682068191D3160060601D51A
:104D2C001D6803E04506FBD5B3F90050002D03DAEE
:104D3C002D236D4284F843300A23594810E0216832
:104D4C003368080653F8045B02D4490648BFADB279
:104D5C006F2F5348336059D10823002184F8431036
:104D6C006668002EA66005DB21682E4321F0040145
:104D7C0021604DD01646B5FBF3F103FB1157C75D0F
:104D8C0006F8017D2F46BB420D46F4D9082B0BD1FA
:104D9C002368DF0708D5236961689942DEBF302399
:104DAC0006F8013C06F1FF36921B22614B46214668
:104DBC004046CDF800A003AAFFF7E4FE01304CD129
:104DCC004FF0FF3004B0BDE8F087236843F02003B8
:104DDC0023607827334884F84570236831681F06B0
:104DEC0051F8045B02D45F0648BFADB23160D907FD
:104DFC0044BF43F0200323601DB11023ADE72848C6
:104E0C00E9E7236823F020032360F6E70A23A4E7ED
:104E1C001646BBE733682568181D616930602E069D
:104E2C001B6801D5196002E06806FBD519800023C8
:104E3C0016462361BAE7336800211A1D32601E68DA
:104E4C006268304600F014FA08B1801B6060636839
:104E5C002361002384F84330A8E732464946404694
:104E6C002369D0470130ABD023689B0713D4E0688B
:104E7C00039B9842B8BF1846A4E701233246494623
:104E8C004046D04701309BD00135E36803995B1A4B
:104E9C00AB42F2DCEBE7002504F11906F5E700BFA5
:104EAC00916C0008A26C00082DE9F84315468A683D
:104EBC0080460C4632B98A69002A14BF4FF0FF3283
:104ECC0001228A6000272268DFF88C90D1065FBF30
:104EDC001A68111D19601668A06988B1012807D1DC
:104EEC002B681A7863699B5C53B9002F31D022E090
:104EFC00022820D12B681B7819F803301B071AD411
:104F0C0023680137DA065EBF2B681B7806F8013B75
:104F1C002A686B6801322A60A268013B013A6B6017
:104F2C00A26042B1002BD7DC29464046D4F8803130
:104F3C0098470028D0D0236813F0100305D1E268FD
:104F4C000132E260A26902B13370002023693B4454
:104F5C002361BDE8F88300BFCF6C00082DE9F04F4A
:104F6C000C469846714B87B08246164693E807006C
:104F7C0003AB83E807006E4BA1696E4A27460329F1
:104F8C0008BF1A46A36801925A1EB2F5AE7F81BFC4
:104F9C006FF4AE7503EB050940F25D13A36057F88F
:104FAC001C3B98BF4FF000093D464FF0000B43F4FB
:104FBC0050632360316803AB0222097853F82B004D
:104FCC0000F056F928B3BBF1010F58D162682AB929
:104FDC0008212268616042F400722260226822F487
:104FEC00A0622260A268511EA16092B13268511C6D
:104FFC003160127805F8012B7268013A002A726050
:10500C0007DC31465046D4F880219047002840F008
:10501C0083800BF1010BBBF1030FCBD1616809B994
:10502C000A216160444B6069591A00F087F84FF00F
:10503C00000BA3682268002B3DD03168606991F8A1
:10504C0000C010F80C00002835D0BCF1300F24D172
:10505C00100522D50BF1010BB9F1000F03D0013370
:10506C0009F1FF39A3607368013B002B73601BDDF2
:10507C00336801333360A368013BA360D9E7BBF10C
:10508C00020FAFD1226802F4C061B1F5007FC5D127
:10509C00102142F480726160A3E722F41062226056
:1050AC000B7805F8013BDEE731465046D4F88031E9
:1050BC0098470028DFD02368DB050DD5BD4209D900
:1050CC0015F8011C32465046D4F87C3105F1FF39F5
:1050DC0098474D46BD4227D0226812F0100212D1DB
:1050EC002A7039466368019E5046B047D8F80030A4
:1050FC0021681A1DC8F800208E061B680FD5186091
:10510C00E3680133E36000202369ED1B5D442B440D
:10511C00236107B0BDE8F08F4FF0000BCBE7CA0757
:10512C004CBF18801860EBE70120F2E748550008E7
:10513C00E9530008C9540008C36C000870B50B781B
:10514C0004465E2B0BBF4B784A1C8A1C002108BFFF
:10515C000121013804F1FF0500F8011FA842FBD121
:10516C000BB9501E70BD81F001011046E15402468E
:10517C0012F8015B2D2D05D05D2D16D0002DF1D030
:10518C002B46F2E746785D2EFAD0B342F8DC1A468D
:10519C00023001329642A154FBDCF21A013AB342BE
:1051AC00A8BF002201331344E1E71046DAE72DE9EA
:1051BC00F0410C46496B04F1440399421BD14FF466
:1051CC008061FFF71FF918B94FF0FF30BDE8F0818F
:1051DC004FF48063A36394F84630606380F8FF3328
:1051EC0094F8453000F2FD30437094F8443003706D
:1051FC0020600020EAE7A66B77003A4600F046F8FC
:10520C0005460028E0D000EB060801463246404631
:10521C00FFF780F8C4E90D57C4F80080E9E788422D
:10522C0010B501EB020402D98442234607D8431E71
:10523C00A14207D011F8012B03F8012FF8E7024423
:10524C00824200D110BD13F8011D02F8011DF7E7D1
:10525C0038B50023054D044608462B60FDF710FDBC
:10526C00431C02D12B6803B1236038BDEC0700202E
:10527C00034610B5C9B202449342184601D100202E
:10528C0003E0047801338C42F6D110BD2DE9F041D6
:10529C00074614460D4621B91146BDE8F041FFF70B
:1052AC00B1B82AB9FFF744F825462846BDE8F08185
:1052BC0000F006F98442064602D8B4EB500FF4D83D
:1052CC0021463846FFF79EF8804608B94546ECE77C
:1052DC00B4422246294628BF3246FFF71BF829461E
:1052EC003846FFF725F8F1E7242B2DE9F0478646E1
:1052FC00904601D8012B06D1FEF7E0FF1623036080
:10530C000020BDE8F0870D4633482A4615F8014BBE
:10531C00065D16F00806F8D12D2C10D101262C783C
:10532C00951C33F0100215D1302C0DD12A7802F0D7
:10533C00DF02582A08D16C78023510230AE02B2C96
:10534C0004BF2C78951CECE7002BF6D1302C14BF45
:10535C000A230823002206F1004C0CF1FF3CBCFB95
:10536C00F3F9104603FB19CAA4F13007092F0FD823
:10537C003C46A3421BDD571C07D0814514D301D1F9
:10538C00A24511DB012200FB034015F8014BEBE7B2
:10539C00A4F14107192F01D8373CEAE7A4F16107C2
:1053AC00192F04D8573CE4E74FF0FF32EDE7531CBC
:1053BC0008D122236046CEF80030B8F1000FA0D0FF
:1053CC00691E06E006B14042B8F1000F99D0002AE0
:1053DC00F6D1C8F8001094E7CF6C0008FFF784BF33
:1053EC002DE9F04386460D46334E284615F8014B01
:1053FC00375D17F00807F8D12D2C10D101272C7828
:10540C00851C33F0100015D1302C0DD1287800F00C
:10541C00DF00582808D16C78023510230AE02B2CB9
:10542C0004BF2C78851CECE7002BF6D1302C14BF74
:10543C000A2308234FF0FF38B8FBF3F8002603FBD0
:10544C0008F930466FEA0909A4F1300CBCF1090FD8
:10545C0010D86446A3421EDDB6F1FF3F07D080454D
:10546C0016D301D1A14513DB012600FB034015F82F
:10547C00014BE9E7A4F1410CBCF1190F01D8373C01
:10548C00E8E7A4F1610CBCF1190F04D8573CE1E733
:10549C004FF0FF36EBE7731C06D122233046CEF8D3
:1054AC00003032B9BDE8F08307B14042002AF9D090
:1054BC0006B1691E1160F5E7CF6C0008FFF790BFCD
:1054CC0051F8043C181F002BBCBF0B58C018704778
:1054DC00F8B500BFF8BC08BC9E467047F8B500BFD5
:0854EC00F8BC08BC9E467047A5
:1054F8003333333333331F40CDCCCCCCCCCC2440E6
:105508003333333333332F40CDCCCCCCCCCC3440B5
:105518000000000000403F409A99999999D9444069
:105528000000000000404F400000000000405F40C5
:105538000000000000406F400000000000407F4075
:10554800C56C0008C86C0008CB6C00084750533A7B
:10555800206E6F2066697800475053204F4B21001A
:10556800475053206E6F7420666F756E642100007B
:1055780073656E64000000007363616E00000000D4
:10558800537461727475702E2E2E00004C6F526128
:10559800204F4B21000000004C6F5261206E6F7449
:1055A80020666F756E642C20636865636B2077696D
:1055B80072696E6721000000536574757020697305
:1055C800206E6F7420636F72726563742E2E0000F4
:1055D8005343414E4E494E472E2E00005465737476
:1055E8002073656E7400000054657374205258006F
:1055F8005363616E2052580046524F4D2025640077
:1056080024475047474100002447504747412C252D
:10561800662C25662C25632C25662C25632C256491
:105628002C25642C25662C25662C2563000000009B
:10563800244750524D430000244750524D432C25D7
:10564800662C25662C25632C25662C25632C25665F
:105658002C25662C25640000244750474C4C00003C
:10566800244750474C4C2C25662C25632C25662C4A
:1056780025632C25662C256300000000244750561E
:10568800544700002447505654472C25662C256360
:105698002C25662C25632C25662C25632C25662C49
:1056A8002563000044454255473A204C6F5261201B
:1056B800496E697469616C697A6564204F4B0D0A9B
:1056C8000000000044454255473A204C6F52612083
:1056D800496E6974204661696C656420436F64652E
:1056E8003A2025640D0A000044454255473A2052A5
:1056F80065636569766564202564206279746573DD
:105708002066726F6D2049442025640D0A00000050
:1057180044454255473A20417474656D7074696E0A
:105728006720746F2073656E64205445535420704D
:1057380061636B65742E2E2E0D0A00004445425598
:10574800473A2053656E6420535543434553530DE0
:105758000A00000044454255473A2053656E6420CC
:105768004641494C45440D0A000000000102000072
:1057780002030405060708090A0B0C0D0E0F10108A
:105788000000000001020304000000000000000007
:1057980001020304060708090B120000B8570008A5
:1057A80000000000070A000014650008000000005F
:1057B80000000000000000000000000000000000E1
:1057C80000000000000000000000000000000000D1
:1057D800000000000000000C000C000C000C000C85
:1057E800000C000C000C000C000C000C0000000C5D
:1057F800000C0000000000000000001B001B001B44
:10580800001B001B0000000000000000000000005A
:1058180000000000000000000000000000008019E7
:10582800801980198019C07FC07F80190033C07F1C
:10583800C07F003300330033003300000000000055
:105848000000001E003F807580650074003C001E4B
:1058580000078005806580658075003F001E000494
:10586800000400000000007000D840D8C0D880D9DB
:1058780000730006000C801BC036C066C046C00618
:1058880080030000000000000000001E003F0033FD
:1058980000330033001E000CC03CC066806380618A
:1058A8008063C03E801C0000000000000000000C67
:1058B800000C000C000C000C0000000000000000B0
:1058C80000000000000000000000000000000000D0
:1058D800800000010003000600060004000C000C14
:1058E800000C000C000C000C00040006000600036D
:1058F80000018000002000100018000C000C0004BB
:105908000006000600060006000600060004000C5B
:10591800000C0018001000200000000C002D003FB3
:10592800001E00330000000000000000000000001E
:10593800000000000000000000000000000000005F
:105948000000000C000C000C000CC0FFC0FF000C95
:10595800000C000C000C000000000000000000001B
:10596800000000000000000000000000000000002F
:1059780000000000000000000000000C000C000403
:105988000004000800000000000000000000000003
:10599800000000000000001E001E000000000000C3
:1059A80000000000000000000000000000000000EF
:1059B80000000000000000000000000000000000DF
:1059C8000000000C000C00000000000000000003B4
:1059D800000300030006000600060006000C000C89
:1059E800000C000C0018001800180000000000004F
:1059F8000000001E003F0033806180618061806D7F
:105A0800806D8061806180610033003F001E00006E
:105A18000000000000000006000E001E00360026F0
:105A2800000600060006000600060006000600063E
:105A380000060000000000000000001E003F807308
:105A480080618061800100030006000C00180030AE
:105A58000060807F807F0000000000000000001CC4
:105A6800003E006300630003000E000E0003800187
:105A7800800180618073003F001E0000000000006C
:105A880000000006000E000E001E001E0016003664
:105A980000360066807F807F000600060006000052
:105AA800000000000000007F007F006000600060D0
:105AB800006E007F80638001800180618073003FF9
:105AC800001E0000000000000000001E003F8033A0
